{
  "contractName": "CryptoniumToken",
  "abi": [
    {
      "inputs": [
        {
          "internalType": "string",
          "name": "_name",
          "type": "string"
        },
        {
          "internalType": "string",
          "name": "_symbol",
          "type": "string"
        }
      ],
      "stateMutability": "nonpayable",
      "type": "constructor"
    },
    {
      "anonymous": false,
      "inputs": [
        {
          "indexed": true,
          "internalType": "address",
          "name": "owner",
          "type": "address"
        },
        {
          "indexed": true,
          "internalType": "address",
          "name": "approved",
          "type": "address"
        },
        {
          "indexed": true,
          "internalType": "uint256",
          "name": "tokenId",
          "type": "uint256"
        }
      ],
      "name": "Approval",
      "type": "event"
    },
    {
      "anonymous": false,
      "inputs": [
        {
          "indexed": true,
          "internalType": "address",
          "name": "owner",
          "type": "address"
        },
        {
          "indexed": true,
          "internalType": "address",
          "name": "operator",
          "type": "address"
        },
        {
          "indexed": false,
          "internalType": "bool",
          "name": "approved",
          "type": "bool"
        }
      ],
      "name": "ApprovalForAll",
      "type": "event"
    },
    {
      "anonymous": false,
      "inputs": [
        {
          "indexed": true,
          "internalType": "address",
          "name": "owner",
          "type": "address"
        },
        {
          "indexed": false,
          "internalType": "uint256",
          "name": "id",
          "type": "uint256"
        },
        {
          "indexed": false,
          "internalType": "uint256",
          "name": "dna",
          "type": "uint256"
        }
      ],
      "name": "NewNft",
      "type": "event"
    },
    {
      "anonymous": false,
      "inputs": [
        {
          "indexed": true,
          "internalType": "address",
          "name": "previousOwner",
          "type": "address"
        },
        {
          "indexed": true,
          "internalType": "address",
          "name": "newOwner",
          "type": "address"
        }
      ],
      "name": "OwnershipTransferred",
      "type": "event"
    },
    {
      "anonymous": false,
      "inputs": [
        {
          "indexed": true,
          "internalType": "address",
          "name": "from",
          "type": "address"
        },
        {
          "indexed": true,
          "internalType": "address",
          "name": "to",
          "type": "address"
        },
        {
          "indexed": true,
          "internalType": "uint256",
          "name": "tokenId",
          "type": "uint256"
        }
      ],
      "name": "Transfer",
      "type": "event"
    },
    {
      "inputs": [
        {
          "internalType": "address",
          "name": "to",
          "type": "address"
        },
        {
          "internalType": "uint256",
          "name": "tokenId",
          "type": "uint256"
        }
      ],
      "name": "approve",
      "outputs": [],
      "stateMutability": "nonpayable",
      "type": "function"
    },
    {
      "inputs": [
        {
          "internalType": "address",
          "name": "owner",
          "type": "address"
        }
      ],
      "name": "balanceOf",
      "outputs": [
        {
          "internalType": "uint256",
          "name": "",
          "type": "uint256"
        }
      ],
      "stateMutability": "view",
      "type": "function",
      "constant": true
    },
    {
      "inputs": [
        {
          "internalType": "uint256",
          "name": "tokenId",
          "type": "uint256"
        }
      ],
      "name": "getApproved",
      "outputs": [
        {
          "internalType": "address",
          "name": "",
          "type": "address"
        }
      ],
      "stateMutability": "view",
      "type": "function",
      "constant": true
    },
    {
      "inputs": [
        {
          "internalType": "address",
          "name": "owner",
          "type": "address"
        },
        {
          "internalType": "address",
          "name": "operator",
          "type": "address"
        }
      ],
      "name": "isApprovedForAll",
      "outputs": [
        {
          "internalType": "bool",
          "name": "",
          "type": "bool"
        }
      ],
      "stateMutability": "view",
      "type": "function",
      "constant": true
    },
    {
      "inputs": [],
      "name": "name",
      "outputs": [
        {
          "internalType": "string",
          "name": "",
          "type": "string"
        }
      ],
      "stateMutability": "view",
      "type": "function",
      "constant": true
    },
    {
      "inputs": [
        {
          "internalType": "uint256",
          "name": "",
          "type": "uint256"
        }
      ],
      "name": "nfts",
      "outputs": [
        {
          "internalType": "string",
          "name": "name",
          "type": "string"
        },
        {
          "internalType": "uint256",
          "name": "id",
          "type": "uint256"
        },
        {
          "internalType": "uint256",
          "name": "dna",
          "type": "uint256"
        },
        {
          "internalType": "uint8",
          "name": "level",
          "type": "uint8"
        },
        {
          "internalType": "uint8",
          "name": "rarity",
          "type": "uint8"
        }
      ],
      "stateMutability": "view",
      "type": "function",
      "constant": true
    },
    {
      "inputs": [],
      "name": "owner",
      "outputs": [
        {
          "internalType": "address",
          "name": "",
          "type": "address"
        }
      ],
      "stateMutability": "view",
      "type": "function",
      "constant": true
    },
    {
      "inputs": [
        {
          "internalType": "uint256",
          "name": "tokenId",
          "type": "uint256"
        }
      ],
      "name": "ownerOf",
      "outputs": [
        {
          "internalType": "address",
          "name": "",
          "type": "address"
        }
      ],
      "stateMutability": "view",
      "type": "function",
      "constant": true
    },
    {
      "inputs": [],
      "name": "renounceOwnership",
      "outputs": [],
      "stateMutability": "nonpayable",
      "type": "function"
    },
    {
      "inputs": [
        {
          "internalType": "address",
          "name": "from",
          "type": "address"
        },
        {
          "internalType": "address",
          "name": "to",
          "type": "address"
        },
        {
          "internalType": "uint256",
          "name": "tokenId",
          "type": "uint256"
        }
      ],
      "name": "safeTransferFrom",
      "outputs": [],
      "stateMutability": "nonpayable",
      "type": "function"
    },
    {
      "inputs": [
        {
          "internalType": "address",
          "name": "from",
          "type": "address"
        },
        {
          "internalType": "address",
          "name": "to",
          "type": "address"
        },
        {
          "internalType": "uint256",
          "name": "tokenId",
          "type": "uint256"
        },
        {
          "internalType": "bytes",
          "name": "_data",
          "type": "bytes"
        }
      ],
      "name": "safeTransferFrom",
      "outputs": [],
      "stateMutability": "nonpayable",
      "type": "function"
    },
    {
      "inputs": [
        {
          "internalType": "address",
          "name": "operator",
          "type": "address"
        },
        {
          "internalType": "bool",
          "name": "approved",
          "type": "bool"
        }
      ],
      "name": "setApprovalForAll",
      "outputs": [],
      "stateMutability": "nonpayable",
      "type": "function"
    },
    {
      "inputs": [
        {
          "internalType": "bytes4",
          "name": "interfaceId",
          "type": "bytes4"
        }
      ],
      "name": "supportsInterface",
      "outputs": [
        {
          "internalType": "bool",
          "name": "",
          "type": "bool"
        }
      ],
      "stateMutability": "view",
      "type": "function",
      "constant": true
    },
    {
      "inputs": [],
      "name": "symbol",
      "outputs": [
        {
          "internalType": "string",
          "name": "",
          "type": "string"
        }
      ],
      "stateMutability": "view",
      "type": "function",
      "constant": true
    },
    {
      "inputs": [
        {
          "internalType": "uint256",
          "name": "tokenId",
          "type": "uint256"
        }
      ],
      "name": "tokenURI",
      "outputs": [
        {
          "internalType": "string",
          "name": "",
          "type": "string"
        }
      ],
      "stateMutability": "view",
      "type": "function",
      "constant": true
    },
    {
      "inputs": [
        {
          "internalType": "address",
          "name": "from",
          "type": "address"
        },
        {
          "internalType": "address",
          "name": "to",
          "type": "address"
        },
        {
          "internalType": "uint256",
          "name": "tokenId",
          "type": "uint256"
        }
      ],
      "name": "transferFrom",
      "outputs": [],
      "stateMutability": "nonpayable",
      "type": "function"
    },
    {
      "inputs": [
        {
          "internalType": "address",
          "name": "newOwner",
          "type": "address"
        }
      ],
      "name": "transferOwnership",
      "outputs": [],
      "stateMutability": "nonpayable",
      "type": "function"
    },
    {
      "inputs": [
        {
          "internalType": "uint256",
          "name": "_fee",
          "type": "uint256"
        }
      ],
      "name": "updateFee",
      "outputs": [],
      "stateMutability": "nonpayable",
      "type": "function"
    },
    {
      "inputs": [],
      "name": "withdraw",
      "outputs": [],
      "stateMutability": "payable",
      "type": "function",
      "payable": true
    },
    {
      "inputs": [
        {
          "internalType": "string",
          "name": "_name",
          "type": "string"
        }
      ],
      "name": "createRandomNft",
      "outputs": [],
      "stateMutability": "payable",
      "type": "function",
      "payable": true
    },
    {
      "inputs": [],
      "name": "getNfts",
      "outputs": [
        {
          "components": [
            {
              "internalType": "string",
              "name": "name",
              "type": "string"
            },
            {
              "internalType": "uint256",
              "name": "id",
              "type": "uint256"
            },
            {
              "internalType": "uint256",
              "name": "dna",
              "type": "uint256"
            },
            {
              "internalType": "uint8",
              "name": "level",
              "type": "uint8"
            },
            {
              "internalType": "uint8",
              "name": "rarity",
              "type": "uint8"
            }
          ],
          "internalType": "struct CryptoniumToken.Nft[]",
          "name": "",
          "type": "tuple[]"
        }
      ],
      "stateMutability": "view",
      "type": "function",
      "constant": true
    },
    {
      "inputs": [
        {
          "internalType": "address",
          "name": "_owner",
          "type": "address"
        }
      ],
      "name": "getOwnerNfts",
      "outputs": [
        {
          "components": [
            {
              "internalType": "string",
              "name": "name",
              "type": "string"
            },
            {
              "internalType": "uint256",
              "name": "id",
              "type": "uint256"
            },
            {
              "internalType": "uint256",
              "name": "dna",
              "type": "uint256"
            },
            {
              "internalType": "uint8",
              "name": "level",
              "type": "uint8"
            },
            {
              "internalType": "uint8",
              "name": "rarity",
              "type": "uint8"
            }
          ],
          "internalType": "struct CryptoniumToken.Nft[]",
          "name": "",
          "type": "tuple[]"
        }
      ],
      "stateMutability": "view",
      "type": "function",
      "constant": true
    },
    {
      "inputs": [
        {
          "internalType": "uint256",
          "name": "_nftId",
          "type": "uint256"
        }
      ],
      "name": "levelUp",
      "outputs": [],
      "stateMutability": "nonpayable",
      "type": "function"
    }
  ],
  "bytecode": "0x6080604052662386f26fc100006008553480156200001c57600080fd5b5060405162003f5c38038062003f5c8339818101604052810190620000429190620003cd565b818181600090805190602001906200005c92919062000180565b5080600190805190602001906200007592919062000180565b505050620000aa62000095620000b2640100000000026401000000009004565b620000ba640100000000026401000000009004565b5050620004b7565b600033905090565b6000600660009054906101000a900473ffffffffffffffffffffffffffffffffffffffff16905081600660006101000a81548173ffffffffffffffffffffffffffffffffffffffff021916908373ffffffffffffffffffffffffffffffffffffffff1602179055508173ffffffffffffffffffffffffffffffffffffffff168173ffffffffffffffffffffffffffffffffffffffff167f8be0079c531659141344cd1fd0a4f28419497f9722a3daafe3b4186f6b6457e060405160405180910390a35050565b8280546200018e9062000481565b90600052602060002090601f016020900481019282620001b25760008555620001fe565b82601f10620001cd57805160ff1916838001178555620001fe565b82800160010185558215620001fe579182015b82811115620001fd578251825591602001919060010190620001e0565b5b5090506200020d919062000211565b5090565b5b808211156200022c57600081600090555060010162000212565b5090565b6000604051905090565b600080fd5b600080fd5b600080fd5b600080fd5b6000601f19601f8301169050919050565b7f4e487b7100000000000000000000000000000000000000000000000000000000600052604160045260246000fd5b62000299826200024e565b810181811067ffffffffffffffff82111715620002bb57620002ba6200025f565b5b80604052505050565b6000620002d062000230565b9050620002de82826200028e565b919050565b600067ffffffffffffffff8211156200030157620003006200025f565b5b6200030c826200024e565b9050602081019050919050565b60005b83811015620003395780820151818401526020810190506200031c565b8381111562000349576000848401525b50505050565b6000620003666200036084620002e3565b620002c4565b90508281526020810184848401111562000385576200038462000249565b5b6200039284828562000319565b509392505050565b600082601f830112620003b257620003b162000244565b5b8151620003c48482602086016200034f565b91505092915050565b60008060408385031215620003e757620003e66200023a565b5b600083015167ffffffffffffffff8111156200040857620004076200023f565b5b62000416858286016200039a565b925050602083015167ffffffffffffffff8111156200043a57620004396200023f565b5b62000448858286016200039a565b9150509250929050565b7f4e487b7100000000000000000000000000000000000000000000000000000000600052602260045260246000fd5b600060028204905060018216806200049a57607f821691505b60208210811415620004b157620004b062000452565b5b50919050565b613a9580620004c76000396000f3fe60806040526004361061015d576000357c0100000000000000000000000000000000000000000000000000000000900480636352211e116100d3578063a22cb4651161008c578063a22cb4651461045f578063b88d4fde14610488578063c87b56dd146104b1578063d8cb55e3146104ee578063e985e9c514610519578063f2fde38b146105565761015d565b80636352211e1461034f57806370a082311461038c578063715018a6146103c95780638da5cb5b146103e05780639012c4a81461040b57806395d89b41146104345761015d565b80632292d6ea116101255780632292d6ea1461025957806323b872dd14610296578063265aa621146102bf5780633ccfd60b146103005780633f2eedd81461030a57806342842e0e146103265761015d565b806301ffc9a71461016257806306fdde031461019f578063081812fc146101ca578063095ea7b3146102075780630ce90ec214610230575b600080fd5b34801561016e57600080fd5b5061018960048036038101906101849190612504565b61057f565b604051610196919061254c565b60405180910390f35b3480156101ab57600080fd5b506101b4610661565b6040516101c19190612600565b60405180910390f35b3480156101d657600080fd5b506101f160048036038101906101ec9190612658565b6106f3565b6040516101fe91906126c6565b60405180910390f35b34801561021357600080fd5b5061022e6004803603810190610229919061270d565b610778565b005b34801561023c57600080fd5b5061025760048036038101906102529190612658565b610890565b005b34801561026557600080fd5b50610280600480360381019061027b919061274d565b610934565b60405161028d9190612927565b60405180910390f35b3480156102a257600080fd5b506102bd60048036038101906102b89190612949565b610b3b565b005b3480156102cb57600080fd5b506102e660048036038101906102e19190612658565b610b9b565b6040516102f79594939291906129ba565b60405180910390f35b610308610c83565b005b610324600480360381019061031f9190612b49565b610d6c565b005b34801561033257600080fd5b5061034d60048036038101906103489190612949565b610d87565b005b34801561035b57600080fd5b5061037660048036038101906103719190612658565b610da7565b60405161038391906126c6565b60405180910390f35b34801561039857600080fd5b506103b360048036038101906103ae919061274d565b610e59565b6040516103c09190612b92565b60405180910390f35b3480156103d557600080fd5b506103de610f11565b005b3480156103ec57600080fd5b506103f5610f99565b60405161040291906126c6565b60405180910390f35b34801561041757600080fd5b50610432600480360381019061042d9190612658565b610fc3565b005b34801561044057600080fd5b50610449611049565b6040516104569190612600565b60405180910390f35b34801561046b57600080fd5b5061048660048036038101906104819190612bd9565b6110db565b005b34801561049457600080fd5b506104af60048036038101906104aa9190612cba565b6110f1565b005b3480156104bd57600080fd5b506104d860048036038101906104d39190612658565b611153565b6040516104e59190612600565b60405180910390f35b3480156104fa57600080fd5b506105036111fa565b6040516105109190612927565b60405180910390f35b34801561052557600080fd5b50610540600480360381019061053b9190612d3d565b611339565b60405161054d919061254c565b60405180910390f35b34801561056257600080fd5b5061057d6004803603810190610578919061274d565b6113cd565b005b60007f80ac58cd000000000000000000000000000000000000000000000000000000007bffffffffffffffffffffffffffffffffffffffffffffffffffffffff1916827bffffffffffffffffffffffffffffffffffffffffffffffffffffffff1916148061064a57507f5b5e139f000000000000000000000000000000000000000000000000000000007bffffffffffffffffffffffffffffffffffffffffffffffffffffffff1916827bffffffffffffffffffffffffffffffffffffffffffffffffffffffff1916145b8061065a5750610659826114c5565b5b9050919050565b60606000805461067090612dac565b80601f016020809104026020016040519081016040528092919081815260200182805461069c90612dac565b80156106e95780601f106106be576101008083540402835291602001916106e9565b820191906000526020600020905b8154815290600101906020018083116106cc57829003601f168201915b5050505050905090565b60006106fe8261152f565b61073d576040517f08c379a000000000000000000000000000000000000000000000000000000000815260040161073490612e50565b60405180910390fd5b6004600083815260200190815260200160002060009054906101000a900473ffffffffffffffffffffffffffffffffffffffff169050919050565b600061078382610da7565b90508073ffffffffffffffffffffffffffffffffffffffff168373ffffffffffffffffffffffffffffffffffffffff1614156107f4576040517f08c379a00000000000000000000000000000000000000000000000000000000081526004016107eb90612ee2565b60405180910390fd5b8073ffffffffffffffffffffffffffffffffffffffff1661081361159b565b73ffffffffffffffffffffffffffffffffffffffff16148061084257506108418161083c61159b565b611339565b5b610881576040517f08c379a000000000000000000000000000000000000000000000000000000000815260040161087890612f74565b60405180910390fd5b61088b83836115a3565b505050565b3373ffffffffffffffffffffffffffffffffffffffff166108b082610da7565b73ffffffffffffffffffffffffffffffffffffffff16146108d057600080fd5b6000600982815481106108e6576108e5612f94565b5b9060005260206000209060040201905080600301600081819054906101000a900460ff168092919061091790612ff2565b91906101000a81548160ff021916908360ff160217905550505050565b6060600061094183610e59565b67ffffffffffffffff81111561095a57610959612a1e565b5b60405190808252806020026020018201604052801561099357816020015b6109806123c0565b8152602001906001900390816109785790505b5090506000805b600980549050811015610b30578473ffffffffffffffffffffffffffffffffffffffff166109c782610da7565b73ffffffffffffffffffffffffffffffffffffffff161415610b1d57600981815481106109f7576109f6612f94565b5b90600052602060002090600402016040518060a0016040529081600082018054610a2090612dac565b80601f0160208091040260200160405190810160405280929190818152602001828054610a4c90612dac565b8015610a995780601f10610a6e57610100808354040283529160200191610a99565b820191906000526020600020905b815481529060010190602001808311610a7c57829003601f168201915b5050505050815260200160018201548152602001600282015481526020016003820160009054906101000a900460ff1660ff1660ff1681526020016003820160019054906101000a900460ff1660ff1660ff1681525050838381518110610b0357610b02612f94565b5b60200260200101819052508180610b199061301c565b9250505b8080610b289061301c565b91505061099a565b508192505050919050565b610b4c610b4661159b565b8261165c565b610b8b576040517f08c379a0000000000000000000000000000000000000000000000000000000008152600401610b82906130d7565b60405180910390fd5b610b9683838361173a565b505050565b60098181548110610bab57600080fd5b9060005260206000209060040201600091509050806000018054610bce90612dac565b80601f0160208091040260200160405190810160405280929190818152602001828054610bfa90612dac565b8015610c475780601f10610c1c57610100808354040283529160200191610c47565b820191906000526020600020905b815481529060010190602001808311610c2a57829003601f168201915b5050505050908060010154908060020154908060030160009054906101000a900460ff16908060030160019054906101000a900460ff16905085565b610c8b61159b565b73ffffffffffffffffffffffffffffffffffffffff16610ca9610f99565b73ffffffffffffffffffffffffffffffffffffffff1614610cff576040517f08c379a0000000000000000000000000000000000000000000000000000000008152600401610cf690613143565b60405180910390fd5b6000610d09610f99565b90508073ffffffffffffffffffffffffffffffffffffffff166108fc3073ffffffffffffffffffffffffffffffffffffffff16319081150290604051600060405180830381858888f19350505050158015610d68573d6000803e3d6000fd5b5050565b600854341015610d7b57600080fd5b610d84816119a1565b50565b610da2838383604051806020016040528060008152506110f1565b505050565b6000806002600084815260200190815260200160002060009054906101000a900473ffffffffffffffffffffffffffffffffffffffff169050600073ffffffffffffffffffffffffffffffffffffffff168173ffffffffffffffffffffffffffffffffffffffff161415610e50576040517f08c379a0000000000000000000000000000000000000000000000000000000008152600401610e47906131d5565b60405180910390fd5b80915050919050565b60008073ffffffffffffffffffffffffffffffffffffffff168273ffffffffffffffffffffffffffffffffffffffff161415610eca576040517f08c379a0000000000000000000000000000000000000000000000000000000008152600401610ec190613267565b60405180910390fd5b600360008373ffffffffffffffffffffffffffffffffffffffff1673ffffffffffffffffffffffffffffffffffffffff168152602001908152602001600020549050919050565b610f1961159b565b73ffffffffffffffffffffffffffffffffffffffff16610f37610f99565b73ffffffffffffffffffffffffffffffffffffffff1614610f8d576040517f08c379a0000000000000000000000000000000000000000000000000000000008152600401610f8490613143565b60405180910390fd5b610f976000611b14565b565b6000600660009054906101000a900473ffffffffffffffffffffffffffffffffffffffff16905090565b610fcb61159b565b73ffffffffffffffffffffffffffffffffffffffff16610fe9610f99565b73ffffffffffffffffffffffffffffffffffffffff161461103f576040517f08c379a000000000000000000000000000000000000000000000000000000000815260040161103690613143565b60405180910390fd5b8060088190555050565b60606001805461105890612dac565b80601f016020809104026020016040519081016040528092919081815260200182805461108490612dac565b80156110d15780601f106110a6576101008083540402835291602001916110d1565b820191906000526020600020905b8154815290600101906020018083116110b457829003601f168201915b5050505050905090565b6110ed6110e661159b565b8383611bda565b5050565b6111026110fc61159b565b8361165c565b611141576040517f08c379a0000000000000000000000000000000000000000000000000000000008152600401611138906130d7565b60405180910390fd5b61114d84848484611d47565b50505050565b606061115e8261152f565b61119d576040517f08c379a0000000000000000000000000000000000000000000000000000000008152600401611194906132f9565b60405180910390fd5b60006111a7611da3565b905060008151116111c757604051806020016040528060008152506111f2565b806111d184611dba565b6040516020016111e2929190613355565b6040516020818303038152906040525b915050919050565b60606009805480602002602001604051908101604052809291908181526020016000905b8282101561133057838290600052602060002090600402016040518060a001604052908160008201805461125190612dac565b80601f016020809104026020016040519081016040528092919081815260200182805461127d90612dac565b80156112ca5780601f1061129f576101008083540402835291602001916112ca565b820191906000526020600020905b8154815290600101906020018083116112ad57829003601f168201915b5050505050815260200160018201548152602001600282015481526020016003820160009054906101000a900460ff1660ff1660ff1681526020016003820160019054906101000a900460ff1660ff1660ff16815250508152602001906001019061121e565b50505050905090565b6000600560008473ffffffffffffffffffffffffffffffffffffffff1673ffffffffffffffffffffffffffffffffffffffff16815260200190815260200160002060008373ffffffffffffffffffffffffffffffffffffffff1673ffffffffffffffffffffffffffffffffffffffff16815260200190815260200160002060009054906101000a900460ff16905092915050565b6113d561159b565b73ffffffffffffffffffffffffffffffffffffffff166113f3610f99565b73ffffffffffffffffffffffffffffffffffffffff1614611449576040517f08c379a000000000000000000000000000000000000000000000000000000000815260040161144090613143565b60405180910390fd5b600073ffffffffffffffffffffffffffffffffffffffff168173ffffffffffffffffffffffffffffffffffffffff1614156114b9576040517f08c379a00000000000000000000000000000000000000000000000000000000081526004016114b0906133eb565b60405180910390fd5b6114c281611b14565b50565b60007f01ffc9a7000000000000000000000000000000000000000000000000000000007bffffffffffffffffffffffffffffffffffffffffffffffffffffffff1916827bffffffffffffffffffffffffffffffffffffffffffffffffffffffff1916149050919050565b60008073ffffffffffffffffffffffffffffffffffffffff166002600084815260200190815260200160002060009054906101000a900473ffffffffffffffffffffffffffffffffffffffff1673ffffffffffffffffffffffffffffffffffffffff1614159050919050565b600033905090565b816004600083815260200190815260200160002060006101000a81548173ffffffffffffffffffffffffffffffffffffffff021916908373ffffffffffffffffffffffffffffffffffffffff160217905550808273ffffffffffffffffffffffffffffffffffffffff1661161683610da7565b73ffffffffffffffffffffffffffffffffffffffff167f8c5be1e5ebec7d5bd14f71427d1e84f3dd0314c0f7b2291e5b200ac8c7c3b92560405160405180910390a45050565b60006116678261152f565b6116a6576040517f08c379a000000000000000000000000000000000000000000000000000000000815260040161169d9061347d565b60405180910390fd5b60006116b183610da7565b90508073ffffffffffffffffffffffffffffffffffffffff168473ffffffffffffffffffffffffffffffffffffffff16148061172057508373ffffffffffffffffffffffffffffffffffffffff16611708846106f3565b73ffffffffffffffffffffffffffffffffffffffff16145b8061173157506117308185611339565b5b91505092915050565b8273ffffffffffffffffffffffffffffffffffffffff1661175a82610da7565b73ffffffffffffffffffffffffffffffffffffffff16146117b0576040517f08c379a00000000000000000000000000000000000000000000000000000000081526004016117a79061350f565b60405180910390fd5b600073ffffffffffffffffffffffffffffffffffffffff168273ffffffffffffffffffffffffffffffffffffffff161415611820576040517f08c379a0000000000000000000000000000000000000000000000000000000008152600401611817906135a1565b60405180910390fd5b61182b838383611f3a565b6118366000826115a3565b6001600360008573ffffffffffffffffffffffffffffffffffffffff1673ffffffffffffffffffffffffffffffffffffffff168152602001908152602001600020600082825461188691906135c1565b925050819055506001600360008473ffffffffffffffffffffffffffffffffffffffff1673ffffffffffffffffffffffffffffffffffffffff16815260200190815260200160002060008282546118dd91906135f5565b92505081905550816002600083815260200190815260200160002060006101000a81548173ffffffffffffffffffffffffffffffffffffffff021916908373ffffffffffffffffffffffffffffffffffffffff160217905550808273ffffffffffffffffffffffffffffffffffffffff168473ffffffffffffffffffffffffffffffffffffffff167fddf252ad1be2c89b69c2b068fc378daa952ba7f163c4a11628f55a4df523b3ef60405160405180910390a461199c838383611f3f565b505050565b60006119ad6064611f44565b905060006119c1662386f26fc10000611f44565b905060006040518060a001604052808581526020016007548152602001838152602001600160ff1681526020018460ff16815250905060098190806001815401808255809150506001900390600052602060002090600402016000909190919091506000820151816000019080519060200190611a3f9291906123f5565b50602082015181600101556040820151816002015560608201518160030160006101000a81548160ff021916908360ff16021790555060808201518160030160016101000a81548160ff021916908360ff1602179055505050611aa433600754611f8a565b3373ffffffffffffffffffffffffffffffffffffffff167feb67298f50c9d9a08ce0fbc65202f5830fc2c0a1624001f497fbab77f4418ad660075484604051611aee92919061364b565b60405180910390a260076000815480929190611b099061301c565b919050555050505050565b6000600660009054906101000a900473ffffffffffffffffffffffffffffffffffffffff16905081600660006101000a81548173ffffffffffffffffffffffffffffffffffffffff021916908373ffffffffffffffffffffffffffffffffffffffff1602179055508173ffffffffffffffffffffffffffffffffffffffff168173ffffffffffffffffffffffffffffffffffffffff167f8be0079c531659141344cd1fd0a4f28419497f9722a3daafe3b4186f6b6457e060405160405180910390a35050565b8173ffffffffffffffffffffffffffffffffffffffff168373ffffffffffffffffffffffffffffffffffffffff161415611c49576040517f08c379a0000000000000000000000000000000000000000000000000000000008152600401611c40906136c0565b60405180910390fd5b80600560008573ffffffffffffffffffffffffffffffffffffffff1673ffffffffffffffffffffffffffffffffffffffff16815260200190815260200160002060008473ffffffffffffffffffffffffffffffffffffffff1673ffffffffffffffffffffffffffffffffffffffff16815260200190815260200160002060006101000a81548160ff0219169083151502179055508173ffffffffffffffffffffffffffffffffffffffff168373ffffffffffffffffffffffffffffffffffffffff167f17307eab39ab6107e8899845ad3d59bd9653f200f220920489ca2b5937696c3183604051611d3a919061254c565b60405180910390a3505050565b611d5284848461173a565b611d5e84848484611fa8565b611d9d576040517f08c379a0000000000000000000000000000000000000000000000000000000008152600401611d9490613752565b60405180910390fd5b50505050565b606060405180602001604052806000815250905090565b60606000821415611e02576040518060400160405280600181526020017f30000000000000000000000000000000000000000000000000000000000000008152509050611f35565b600082905060005b60008214611e34578080611e1d9061301c565b915050600a82611e2d91906137a1565b9150611e0a565b60008167ffffffffffffffff811115611e5057611e4f612a1e565b5b6040519080825280601f01601f191660200182016040528015611e825781602001600182028036833780820191505090505b5090505b60008514611f2e57600182611e9b91906135c1565b9150600a85611eaa91906137d2565b6030611eb691906135f5565b7f010000000000000000000000000000000000000000000000000000000000000002818381518110611eeb57611eea612f94565b5b60200101907effffffffffffffffffffffffffffffffffffffffffffffffffffffffffffff1916908160001a905350600a85611f2791906137a1565b9450611e86565b8093505050505b919050565b505050565b505050565b6000804233604051602001611f5a929190613878565b604051602081830303815290604052805190602001206001900490508281611f8291906137d2565b915050919050565b611fa4828260405180602001604052806000815250612168565b5050565b6000611fc98473ffffffffffffffffffffffffffffffffffffffff166121c3565b1561215b578373ffffffffffffffffffffffffffffffffffffffff1663150b7a02611ff261159b565b8786866040518563ffffffff167c010000000000000000000000000000000000000000000000000000000002815260040161203094939291906138f9565b6020604051808303816000875af192505050801561206c57506040513d601f19601f82011682018060405250810190612069919061395a565b60015b6120ef573d806000811461209c576040519150601f19603f3d011682016040523d82523d6000602084013e6120a1565b606091505b506000815114156120e7576040517f08c379a00000000000000000000000000000000000000000000000000000000081526004016120de90613752565b60405180910390fd5b805181602001fd5b63150b7a027c0100000000000000000000000000000000000000000000000000000000027bffffffffffffffffffffffffffffffffffffffffffffffffffffffff1916817bffffffffffffffffffffffffffffffffffffffffffffffffffffffff191614915050612160565b600190505b949350505050565b61217283836121e6565b61217f6000848484611fa8565b6121be576040517f08c379a00000000000000000000000000000000000000000000000000000000081526004016121b590613752565b60405180910390fd5b505050565b6000808273ffffffffffffffffffffffffffffffffffffffff163b119050919050565b600073ffffffffffffffffffffffffffffffffffffffff168273ffffffffffffffffffffffffffffffffffffffff161415612256576040517f08c379a000000000000000000000000000000000000000000000000000000000815260040161224d906139d3565b60405180910390fd5b61225f8161152f565b1561229f576040517f08c379a000000000000000000000000000000000000000000000000000000000815260040161229690613a3f565b60405180910390fd5b6122ab60008383611f3a565b6001600360008473ffffffffffffffffffffffffffffffffffffffff1673ffffffffffffffffffffffffffffffffffffffff16815260200190815260200160002060008282546122fb91906135f5565b92505081905550816002600083815260200190815260200160002060006101000a81548173ffffffffffffffffffffffffffffffffffffffff021916908373ffffffffffffffffffffffffffffffffffffffff160217905550808273ffffffffffffffffffffffffffffffffffffffff16600073ffffffffffffffffffffffffffffffffffffffff167fddf252ad1be2c89b69c2b068fc378daa952ba7f163c4a11628f55a4df523b3ef60405160405180910390a46123bc60008383611f3f565b5050565b6040518060a00160405280606081526020016000815260200160008152602001600060ff168152602001600060ff1681525090565b82805461240190612dac565b90600052602060002090601f016020900481019282612423576000855561246a565b82601f1061243c57805160ff191683800117855561246a565b8280016001018555821561246a579182015b8281111561246957825182559160200191906001019061244e565b5b509050612477919061247b565b5090565b5b8082111561249457600081600090555060010161247c565b5090565b6000604051905090565b600080fd5b600080fd5b60007fffffffff0000000000000000000000000000000000000000000000000000000082169050919050565b6124e1816124ac565b81146124ec57600080fd5b50565b6000813590506124fe816124d8565b92915050565b60006020828403121561251a576125196124a2565b5b6000612528848285016124ef565b91505092915050565b60008115159050919050565b61254681612531565b82525050565b6000602082019050612561600083018461253d565b92915050565b600081519050919050565b600082825260208201905092915050565b60005b838110156125a1578082015181840152602081019050612586565b838111156125b0576000848401525b50505050565b6000601f19601f8301169050919050565b60006125d282612567565b6125dc8185612572565b93506125ec818560208601612583565b6125f5816125b6565b840191505092915050565b6000602082019050818103600083015261261a81846125c7565b905092915050565b6000819050919050565b61263581612622565b811461264057600080fd5b50565b6000813590506126528161262c565b92915050565b60006020828403121561266e5761266d6124a2565b5b600061267c84828501612643565b91505092915050565b600073ffffffffffffffffffffffffffffffffffffffff82169050919050565b60006126b082612685565b9050919050565b6126c0816126a5565b82525050565b60006020820190506126db60008301846126b7565b92915050565b6126ea816126a5565b81146126f557600080fd5b50565b600081359050612707816126e1565b92915050565b60008060408385031215612724576127236124a2565b5b6000612732858286016126f8565b925050602061274385828601612643565b9150509250929050565b600060208284031215612763576127626124a2565b5b6000612771848285016126f8565b91505092915050565b600081519050919050565b600082825260208201905092915050565b6000819050602082019050919050565b600082825260208201905092915050565b60006127c282612567565b6127cc81856127a6565b93506127dc818560208601612583565b6127e5816125b6565b840191505092915050565b6127f981612622565b82525050565b600060ff82169050919050565b612815816127ff565b82525050565b600060a083016000830151848203600086015261283882826127b7565b915050602083015161284d60208601826127f0565b50604083015161286060408601826127f0565b506060830151612873606086018261280c565b506080830151612886608086018261280c565b508091505092915050565b600061289d838361281b565b905092915050565b6000602082019050919050565b60006128bd8261277a565b6128c78185612785565b9350836020820285016128d985612796565b8060005b8581101561291557848403895281516128f68582612891565b9450612901836128a5565b925060208a019950506001810190506128dd565b50829750879550505050505092915050565b6000602082019050818103600083015261294181846128b2565b905092915050565b600080600060608486031215612962576129616124a2565b5b6000612970868287016126f8565b9350506020612981868287016126f8565b925050604061299286828701612643565b9150509250925092565b6129a581612622565b82525050565b6129b4816127ff565b82525050565b600060a08201905081810360008301526129d481886125c7565b90506129e3602083018761299c565b6129f0604083018661299c565b6129fd60608301856129ab565b612a0a60808301846129ab565b9695505050505050565b600080fd5b600080fd5b7f4e487b7100000000000000000000000000000000000000000000000000000000600052604160045260246000fd5b612a56826125b6565b810181811067ffffffffffffffff82111715612a7557612a74612a1e565b5b80604052505050565b6000612a88612498565b9050612a948282612a4d565b919050565b600067ffffffffffffffff821115612ab457612ab3612a1e565b5b612abd826125b6565b9050602081019050919050565b82818337600083830152505050565b6000612aec612ae784612a99565b612a7e565b905082815260208101848484011115612b0857612b07612a19565b5b612b13848285612aca565b509392505050565b600082601f830112612b3057612b2f612a14565b5b8135612b40848260208601612ad9565b91505092915050565b600060208284031215612b5f57612b5e6124a2565b5b600082013567ffffffffffffffff811115612b7d57612b7c6124a7565b5b612b8984828501612b1b565b91505092915050565b6000602082019050612ba7600083018461299c565b92915050565b612bb681612531565b8114612bc157600080fd5b50565b600081359050612bd381612bad565b92915050565b60008060408385031215612bf057612bef6124a2565b5b6000612bfe858286016126f8565b9250506020612c0f85828601612bc4565b9150509250929050565b600067ffffffffffffffff821115612c3457612c33612a1e565b5b612c3d826125b6565b9050602081019050919050565b6000612c5d612c5884612c19565b612a7e565b905082815260208101848484011115612c7957612c78612a19565b5b612c84848285612aca565b509392505050565b600082601f830112612ca157612ca0612a14565b5b8135612cb1848260208601612c4a565b91505092915050565b60008060008060808587031215612cd457612cd36124a2565b5b6000612ce2878288016126f8565b9450506020612cf3878288016126f8565b9350506040612d0487828801612643565b925050606085013567ffffffffffffffff811115612d2557612d246124a7565b5b612d3187828801612c8c565b91505092959194509250565b60008060408385031215612d5457612d536124a2565b5b6000612d62858286016126f8565b9250506020612d73858286016126f8565b9150509250929050565b7f4e487b7100000000000000000000000000000000000000000000000000000000600052602260045260246000fd5b60006002820490506001821680612dc457607f821691505b60208210811415612dd857612dd7612d7d565b5b50919050565b7f4552433732313a20617070726f76656420717565727920666f72206e6f6e657860008201527f697374656e7420746f6b656e0000000000000000000000000000000000000000602082015250565b6000612e3a602c83612572565b9150612e4582612dde565b604082019050919050565b60006020820190508181036000830152612e6981612e2d565b9050919050565b7f4552433732313a20617070726f76616c20746f2063757272656e74206f776e6560008201527f7200000000000000000000000000000000000000000000000000000000000000602082015250565b6000612ecc602183612572565b9150612ed782612e70565b604082019050919050565b60006020820190508181036000830152612efb81612ebf565b9050919050565b7f4552433732313a20617070726f76652063616c6c6572206973206e6f74206f7760008201527f6e6572206e6f7220617070726f76656420666f7220616c6c0000000000000000602082015250565b6000612f5e603883612572565b9150612f6982612f02565b604082019050919050565b60006020820190508181036000830152612f8d81612f51565b9050919050565b7f4e487b7100000000000000000000000000000000000000000000000000000000600052603260045260246000fd5b7f4e487b7100000000000000000000000000000000000000000000000000000000600052601160045260246000fd5b6000612ffd826127ff565b915060ff82141561301157613010612fc3565b5b600182019050919050565b600061302782612622565b91507fffffffffffffffffffffffffffffffffffffffffffffffffffffffffffffffff82141561305a57613059612fc3565b5b600182019050919050565b7f4552433732313a207472616e736665722063616c6c6572206973206e6f74206f60008201527f776e6572206e6f7220617070726f766564000000000000000000000000000000602082015250565b60006130c1603183612572565b91506130cc82613065565b604082019050919050565b600060208201905081810360008301526130f0816130b4565b9050919050565b7f4f776e61626c653a2063616c6c6572206973206e6f7420746865206f776e6572600082015250565b600061312d602083612572565b9150613138826130f7565b602082019050919050565b6000602082019050818103600083015261315c81613120565b9050919050565b7f4552433732313a206f776e657220717565727920666f72206e6f6e657869737460008201527f656e7420746f6b656e0000000000000000000000000000000000000000000000602082015250565b60006131bf602983612572565b91506131ca82613163565b604082019050919050565b600060208201905081810360008301526131ee816131b2565b9050919050565b7f4552433732313a2062616c616e636520717565727920666f7220746865207a6560008201527f726f206164647265737300000000000000000000000000000000000000000000602082015250565b6000613251602a83612572565b915061325c826131f5565b604082019050919050565b6000602082019050818103600083015261328081613244565b9050919050565b7f4552433732314d657461646174613a2055524920717565727920666f72206e6f60008201527f6e6578697374656e7420746f6b656e0000000000000000000000000000000000602082015250565b60006132e3602f83612572565b91506132ee82613287565b604082019050919050565b60006020820190508181036000830152613312816132d6565b9050919050565b600081905092915050565b600061332f82612567565b6133398185613319565b9350613349818560208601612583565b80840191505092915050565b60006133618285613324565b915061336d8284613324565b91508190509392505050565b7f4f776e61626c653a206e6577206f776e657220697320746865207a65726f206160008201527f6464726573730000000000000000000000000000000000000000000000000000602082015250565b60006133d5602683612572565b91506133e082613379565b604082019050919050565b60006020820190508181036000830152613404816133c8565b9050919050565b7f4552433732313a206f70657261746f7220717565727920666f72206e6f6e657860008201527f697374656e7420746f6b656e0000000000000000000000000000000000000000602082015250565b6000613467602c83612572565b91506134728261340b565b604082019050919050565b600060208201905081810360008301526134968161345a565b9050919050565b7f4552433732313a207472616e736665722066726f6d20696e636f72726563742060008201527f6f776e6572000000000000000000000000000000000000000000000000000000602082015250565b60006134f9602583612572565b91506135048261349d565b604082019050919050565b60006020820190508181036000830152613528816134ec565b9050919050565b7f4552433732313a207472616e7366657220746f20746865207a65726f2061646460008201527f7265737300000000000000000000000000000000000000000000000000000000602082015250565b600061358b602483612572565b91506135968261352f565b604082019050919050565b600060208201905081810360008301526135ba8161357e565b9050919050565b60006135cc82612622565b91506135d783612622565b9250828210156135ea576135e9612fc3565b5b828203905092915050565b600061360082612622565b915061360b83612622565b9250827fffffffffffffffffffffffffffffffffffffffffffffffffffffffffffffffff038211156136405761363f612fc3565b5b828201905092915050565b6000604082019050613660600083018561299c565b61366d602083018461299c565b9392505050565b7f4552433732313a20617070726f766520746f2063616c6c657200000000000000600082015250565b60006136aa601983612572565b91506136b582613674565b602082019050919050565b600060208201905081810360008301526136d98161369d565b9050919050565b7f4552433732313a207472616e7366657220746f206e6f6e20455243373231526560008201527f63656976657220696d706c656d656e7465720000000000000000000000000000602082015250565b600061373c603283612572565b9150613747826136e0565b604082019050919050565b6000602082019050818103600083015261376b8161372f565b9050919050565b7f4e487b7100000000000000000000000000000000000000000000000000000000600052601260045260246000fd5b60006137ac82612622565b91506137b783612622565b9250826137c7576137c6613772565b5b828204905092915050565b60006137dd82612622565b91506137e883612622565b9250826137f8576137f7613772565b5b828206905092915050565b6000819050919050565b61381e61381982612622565b613803565b82525050565b60006c0100000000000000000000000082029050919050565b600061384882613824565b9050919050565b600061385a8261383d565b9050919050565b61387261386d826126a5565b61384f565b82525050565b6000613884828561380d565b6020820191506138948284613861565b6014820191508190509392505050565b600081519050919050565b600082825260208201905092915050565b60006138cb826138a4565b6138d581856138af565b93506138e5818560208601612583565b6138ee816125b6565b840191505092915050565b600060808201905061390e60008301876126b7565b61391b60208301866126b7565b613928604083018561299c565b818103606083015261393a81846138c0565b905095945050505050565b600081519050613954816124d8565b92915050565b6000602082840312156139705761396f6124a2565b5b600061397e84828501613945565b91505092915050565b7f4552433732313a206d696e7420746f20746865207a65726f2061646472657373600082015250565b60006139bd602083612572565b91506139c882613987565b602082019050919050565b600060208201905081810360008301526139ec816139b0565b9050919050565b7f4552433732313a20746f6b656e20616c7265616479206d696e74656400000000600082015250565b6000613a29601c83612572565b9150613a34826139f3565b602082019050919050565b60006020820190508181036000830152613a5881613a1c565b905091905056fea26469706673582212207aa5dc966af69a180fa204cb432e01b0d32c911c2898f17d1ddd4dc528b2023364736f6c634300080b0033",
  "immutableReferences": {},
  "source": "// SPDX-License-Identifier: MIT\npragma solidity ^0.8.4;\n\nimport \"@openzeppelin/contracts/token/ERC721/ERC721.sol\";\nimport \"@openzeppelin/contracts/access/Ownable.sol\";\n\ncontract CryptoniumToken is ERC721, Ownable {\n  constructor(string memory _name, string memory _symbol)\n    ERC721(_name, _symbol)\n  {}\n\n  uint256 COUNTER;\n\n  uint256 fee = 0.01 ether;\n\n  struct Nft {\n    string name;\n    uint256 id;\n    uint256 dna;\n    uint8 level;\n    uint8 rarity;\n  }\n\n  Nft[] public nfts;\n\n  event NewNft(address indexed owner, uint256 id, uint256 dna);\n\n  // Helpers\n  function _createRandomNum(uint256 _mod) internal view returns (uint256) {\n    uint256 randomNum = uint256(\n      keccak256(abi.encodePacked(block.timestamp, msg.sender))\n    );\n    return randomNum % _mod;\n  }\n\n  function updateFee(uint256 _fee) external onlyOwner {\n    fee = _fee;\n  }\n\n  function withdraw() external payable onlyOwner {\n    address payable _owner = payable(owner());\n    _owner.transfer(address(this).balance);\n  }\n\n  // Creation\n  function _createNft(string memory _name) internal {\n    uint8 randRarity = uint8(_createRandomNum(100));\n    uint256 randDna = _createRandomNum(10**16);\n    Nft memory newNft = Nft(_name, COUNTER, randDna, 1, randRarity);\n    nfts.push(newNft);\n    _safeMint(msg.sender, COUNTER);\n    emit NewNft(msg.sender, COUNTER, randDna);\n    COUNTER++;\n  }\n\n  function createRandomNft(string memory _name) public payable {\n    require(msg.value >= fee);\n    _createNft(_name);\n  }\n\n  // Getters\n  function getNfts() public view returns (Nft[] memory) {\n    return nfts;\n  }\n\n  function getOwnerNfts(address _owner) public view returns (Nft[] memory) {\n    Nft[] memory result = new Nft[](balanceOf(_owner));\n    uint256 counter = 0;\n    for (uint256 i = 0; i < nfts.length; i++) {\n      if (ownerOf(i) == _owner) {\n        result[counter] = nfts[i];\n        counter++;\n      }\n    }\n    return result;\n  }\n\n  // Actions\n  function levelUp(uint256 _nftId) public {\n    require(ownerOf(_nftId) == msg.sender);\n    Nft storage nft = nfts[_nftId];\n    nft.level++;\n  }\n}\n",
  "sourcePath": "E:\\Keval Sabhani\\cryptonium_nft\\contracts\\CryptoniumToken.sol",
  "compiler": {
    "name": "solc",
    "version": "0.8.11+commit.d7f03943.Emscripten.clang"
  },
  "schemaVersion": "3.4.5",
  "updatedAt": "2022-02-25T11:44:12.891Z",
  "networkType": "ethereum",
  "devdoc": {
    "kind": "dev",
    "methods": {
      "approve(address,uint256)": {
        "details": "See {IERC721-approve}."
      },
      "balanceOf(address)": {
        "details": "See {IERC721-balanceOf}."
      },
      "getApproved(uint256)": {
        "details": "See {IERC721-getApproved}."
      },
      "isApprovedForAll(address,address)": {
        "details": "See {IERC721-isApprovedForAll}."
      },
      "name()": {
        "details": "See {IERC721Metadata-name}."
      },
      "owner()": {
        "details": "Returns the address of the current owner."
      },
      "ownerOf(uint256)": {
        "details": "See {IERC721-ownerOf}."
      },
      "renounceOwnership()": {
        "details": "Leaves the contract without owner. It will not be possible to call `onlyOwner` functions anymore. Can only be called by the current owner. NOTE: Renouncing ownership will leave the contract without an owner, thereby removing any functionality that is only available to the owner."
      },
      "safeTransferFrom(address,address,uint256)": {
        "details": "See {IERC721-safeTransferFrom}."
      },
      "safeTransferFrom(address,address,uint256,bytes)": {
        "details": "See {IERC721-safeTransferFrom}."
      },
      "setApprovalForAll(address,bool)": {
        "details": "See {IERC721-setApprovalForAll}."
      },
      "supportsInterface(bytes4)": {
        "details": "See {IERC165-supportsInterface}."
      },
      "symbol()": {
        "details": "See {IERC721Metadata-symbol}."
      },
      "tokenURI(uint256)": {
        "details": "See {IERC721Metadata-tokenURI}."
      },
      "transferFrom(address,address,uint256)": {
        "details": "See {IERC721-transferFrom}."
      },
      "transferOwnership(address)": {
        "details": "Transfers ownership of the contract to a new account (`newOwner`). Can only be called by the current owner."
      }
    },
    "version": 1
  },
  "userdoc": {
    "kind": "user",
    "methods": {},
    "version": 1
  }
}