{
  "contractName": "MarketPlace",
  "abi": [
    {
      "inputs": [],
      "stateMutability": "nonpayable",
      "type": "constructor"
    },
    {
      "anonymous": false,
      "inputs": [
        {
          "indexed": true,
          "internalType": "uint256",
          "name": "itemId",
          "type": "uint256"
        },
        {
          "indexed": true,
          "internalType": "address",
          "name": "nftContract",
          "type": "address"
        },
        {
          "indexed": true,
          "internalType": "uint256",
          "name": "tokenId",
          "type": "uint256"
        },
        {
          "indexed": false,
          "internalType": "address",
          "name": "seller",
          "type": "address"
        },
        {
          "indexed": false,
          "internalType": "address",
          "name": "owner",
          "type": "address"
        },
        {
          "indexed": false,
          "internalType": "uint256",
          "name": "price",
          "type": "uint256"
        },
        {
          "indexed": false,
          "internalType": "bool",
          "name": "sold",
          "type": "bool"
        }
      ],
      "name": "MarketItemCreated",
      "type": "event"
    },
    {
      "anonymous": false,
      "inputs": [
        {
          "indexed": true,
          "internalType": "uint256",
          "name": "itemId",
          "type": "uint256"
        },
        {
          "indexed": false,
          "internalType": "address",
          "name": "owner",
          "type": "address"
        }
      ],
      "name": "MarketItemSold",
      "type": "event"
    },
    {
      "inputs": [],
      "name": "owner",
      "outputs": [
        {
          "internalType": "address",
          "name": "",
          "type": "address"
        }
      ],
      "stateMutability": "view",
      "type": "function",
      "constant": true
    },
    {
      "inputs": [
        {
          "internalType": "address",
          "name": "nftContract",
          "type": "address"
        },
        {
          "internalType": "uint256",
          "name": "tokenId",
          "type": "uint256"
        },
        {
          "internalType": "uint256",
          "name": "price",
          "type": "uint256"
        }
      ],
      "name": "createMarketItem",
      "outputs": [],
      "stateMutability": "payable",
      "type": "function",
      "payable": true
    },
    {
      "inputs": [
        {
          "internalType": "address",
          "name": "nftContract",
          "type": "address"
        },
        {
          "internalType": "uint256",
          "name": "itemId",
          "type": "uint256"
        }
      ],
      "name": "createMarketSale",
      "outputs": [],
      "stateMutability": "payable",
      "type": "function",
      "payable": true
    },
    {
      "inputs": [],
      "name": "fetchMarketItems",
      "outputs": [
        {
          "components": [
            {
              "internalType": "uint256",
              "name": "itemId",
              "type": "uint256"
            },
            {
              "internalType": "address",
              "name": "nftContract",
              "type": "address"
            },
            {
              "internalType": "uint256",
              "name": "tokenId",
              "type": "uint256"
            },
            {
              "internalType": "address payable",
              "name": "seller",
              "type": "address"
            },
            {
              "internalType": "address payable",
              "name": "owner",
              "type": "address"
            },
            {
              "internalType": "uint256",
              "name": "price",
              "type": "uint256"
            },
            {
              "internalType": "bool",
              "name": "sold",
              "type": "bool"
            }
          ],
          "internalType": "struct MarketPlace.MarketItem[]",
          "name": "",
          "type": "tuple[]"
        }
      ],
      "stateMutability": "view",
      "type": "function",
      "constant": true
    }
  ],
  "bytecode": "0x608060405234801561001057600080fd5b50600160008190555033600360006101000a81548173ffffffffffffffffffffffffffffffffffffffff021916908373ffffffffffffffffffffffffffffffffffffffff1602179055506111f9806100696000396000f3fe60806040526004361061005c576000357c0100000000000000000000000000000000000000000000000000000000900480630f08efe01461006157806358eb2df51461008c5780638da5cb5b146100a8578063c23b139e146100d3575b600080fd5b34801561006d57600080fd5b506100766100ef565b6040516100839190610ca6565b60405180910390f35b6100a660048036038101906100a19190610d25565b6103b9565b005b3480156100b457600080fd5b506100bd6106f5565b6040516100ca9190610d87565b60405180910390f35b6100ed60048036038101906100e89190610da2565b61071b565b005b606060006100fd6001610a2e565b9050600061010b6002610a2e565b6101156001610a2e565b61011f9190610e11565b90506000808267ffffffffffffffff81111561013e5761013d610e45565b5b60405190808252806020026020018201604052801561017757816020015b610164610a52565b81526020019060019003908161015c5790505b50905060005b848110156103ae57600073ffffffffffffffffffffffffffffffffffffffff16600460006001846101ae9190610e74565b815260200190815260200160002060040160009054906101000a900473ffffffffffffffffffffffffffffffffffffffff1673ffffffffffffffffffffffffffffffffffffffff16141561039b57600060018261020b9190610e74565b90506000600460008381526020019081526020016000209050806040518060e0016040529081600082015481526020016001820160009054906101000a900473ffffffffffffffffffffffffffffffffffffffff1673ffffffffffffffffffffffffffffffffffffffff1673ffffffffffffffffffffffffffffffffffffffff168152602001600282015481526020016003820160009054906101000a900473ffffffffffffffffffffffffffffffffffffffff1673ffffffffffffffffffffffffffffffffffffffff1673ffffffffffffffffffffffffffffffffffffffff1681526020016004820160009054906101000a900473ffffffffffffffffffffffffffffffffffffffff1673ffffffffffffffffffffffffffffffffffffffff1673ffffffffffffffffffffffffffffffffffffffff168152602001600582015481526020016006820160009054906101000a900460ff16151515158152505084868151811061037e5761037d610eca565b5b60200260200101819052506001856103969190610e74565b945050505b80806103a690610ef9565b91505061017d565b508094505050505090565b600260005414156103ff576040517f08c379a00000000000000000000000000000000000000000000000000000000081526004016103f690610f9f565b60405180910390fd5b60026000819055506000811161044a576040517f08c379a00000000000000000000000000000000000000000000000000000000081526004016104419061100b565b60405180910390fd5b6104546001610a3c565b60006104606001610a2e565b90506040518060e001604052808281526020018573ffffffffffffffffffffffffffffffffffffffff1681526020018481526020013373ffffffffffffffffffffffffffffffffffffffff168152602001600073ffffffffffffffffffffffffffffffffffffffff16815260200183815260200160001515815250600460008381526020019081526020016000206000820151816000015560208201518160010160006101000a81548173ffffffffffffffffffffffffffffffffffffffff021916908373ffffffffffffffffffffffffffffffffffffffff1602179055506040820151816002015560608201518160030160006101000a81548173ffffffffffffffffffffffffffffffffffffffff021916908373ffffffffffffffffffffffffffffffffffffffff16021790555060808201518160040160006101000a81548173ffffffffffffffffffffffffffffffffffffffff021916908373ffffffffffffffffffffffffffffffffffffffff16021790555060a0820151816005015560c08201518160060160006101000a81548160ff0219169083151502179055509050508373ffffffffffffffffffffffffffffffffffffffff166323b872dd3330866040518463ffffffff167c010000000000000000000000000000000000000000000000000000000002815260040161065d9392919061103a565b600060405180830381600087803b15801561067757600080fd5b505af115801561068b573d6000803e3d6000fd5b50505050828473ffffffffffffffffffffffffffffffffffffffff16827f045dfa01dcba2b36aba1d3dc4a874f4b0c5d2fbeb8d2c4b34a7d88c8d8f929d13360008760006040516106df9493929190611080565b60405180910390a4506001600081905550505050565b600360009054906101000a900473ffffffffffffffffffffffffffffffffffffffff1681565b60026000541415610761576040517f08c379a000000000000000000000000000000000000000000000000000000000815260040161075890610f9f565b60405180910390fd5b600260008190555060006004600083815260200190815260200160002060050154905060006004600084815260200190815260200160002060020154905060006004600085815260200190815260200160002060060160009054906101000a900460ff169050823414610809576040517f08c379a000000000000000000000000000000000000000000000000000000000815260040161080090611137565b60405180910390fd5b600115158115151415610851576040517f08c379a0000000000000000000000000000000000000000000000000000000008152600401610848906111a3565b60405180910390fd5b837f2073b2706c235effb1e3840575370a51749afd8181b4018f93bff955d50792cb336040516108819190610d87565b60405180910390a26004600085815260200190815260200160002060030160009054906101000a900473ffffffffffffffffffffffffffffffffffffffff1673ffffffffffffffffffffffffffffffffffffffff166108fc349081150290604051600060405180830381858888f19350505050158015610905573d6000803e3d6000fd5b508473ffffffffffffffffffffffffffffffffffffffff166323b872dd3033856040518463ffffffff167c010000000000000000000000000000000000000000000000000000000002815260040161095f9392919061103a565b600060405180830381600087803b15801561097957600080fd5b505af115801561098d573d6000803e3d6000fd5b50505050336004600086815260200190815260200160002060040160006101000a81548173ffffffffffffffffffffffffffffffffffffffff021916908373ffffffffffffffffffffffffffffffffffffffff1602179055506109f06002610a3c565b60016004600086815260200190815260200160002060060160006101000a81548160ff02191690831515021790555050505060016000819055505050565b600081600001549050919050565b6001816000016000828254019250508190555050565b6040518060e0016040528060008152602001600073ffffffffffffffffffffffffffffffffffffffff16815260200160008152602001600073ffffffffffffffffffffffffffffffffffffffff168152602001600073ffffffffffffffffffffffffffffffffffffffff168152602001600081526020016000151581525090565b600081519050919050565b600082825260208201905092915050565b6000819050602082019050919050565b6000819050919050565b610b1281610aff565b82525050565b600073ffffffffffffffffffffffffffffffffffffffff82169050919050565b6000610b4382610b18565b9050919050565b610b5381610b38565b82525050565b6000610b6482610b18565b9050919050565b610b7481610b59565b82525050565b60008115159050919050565b610b8f81610b7a565b82525050565b60e082016000820151610bab6000850182610b09565b506020820151610bbe6020850182610b4a565b506040820151610bd16040850182610b09565b506060820151610be46060850182610b6b565b506080820151610bf76080850182610b6b565b5060a0820151610c0a60a0850182610b09565b5060c0820151610c1d60c0850182610b86565b50505050565b6000610c2f8383610b95565b60e08301905092915050565b6000602082019050919050565b6000610c5382610ad3565b610c5d8185610ade565b9350610c6883610aef565b8060005b83811015610c99578151610c808882610c23565b9750610c8b83610c3b565b925050600181019050610c6c565b5085935050505092915050565b60006020820190508181036000830152610cc08184610c48565b905092915050565b600080fd5b610cd681610b38565b8114610ce157600080fd5b50565b600081359050610cf381610ccd565b92915050565b610d0281610aff565b8114610d0d57600080fd5b50565b600081359050610d1f81610cf9565b92915050565b600080600060608486031215610d3e57610d3d610cc8565b5b6000610d4c86828701610ce4565b9350506020610d5d86828701610d10565b9250506040610d6e86828701610d10565b9150509250925092565b610d8181610b38565b82525050565b6000602082019050610d9c6000830184610d78565b92915050565b60008060408385031215610db957610db8610cc8565b5b6000610dc785828601610ce4565b9250506020610dd885828601610d10565b9150509250929050565b7f4e487b7100000000000000000000000000000000000000000000000000000000600052601160045260246000fd5b6000610e1c82610aff565b9150610e2783610aff565b925082821015610e3a57610e39610de2565b5b828203905092915050565b7f4e487b7100000000000000000000000000000000000000000000000000000000600052604160045260246000fd5b6000610e7f82610aff565b9150610e8a83610aff565b9250827fffffffffffffffffffffffffffffffffffffffffffffffffffffffffffffffff03821115610ebf57610ebe610de2565b5b828201905092915050565b7f4e487b7100000000000000000000000000000000000000000000000000000000600052603260045260246000fd5b6000610f0482610aff565b91507fffffffffffffffffffffffffffffffffffffffffffffffffffffffffffffffff821415610f3757610f36610de2565b5b600182019050919050565b600082825260208201905092915050565b7f5265656e7472616e637947756172643a207265656e7472616e742063616c6c00600082015250565b6000610f89601f83610f42565b9150610f9482610f53565b602082019050919050565b60006020820190508181036000830152610fb881610f7c565b9050919050565b7f5072696365206d7573742062652067726561746572207468616e203000000000600082015250565b6000610ff5601c83610f42565b915061100082610fbf565b602082019050919050565b6000602082019050818103600083015261102481610fe8565b9050919050565b61103481610aff565b82525050565b600060608201905061104f6000830186610d78565b61105c6020830185610d78565b611069604083018461102b565b949350505050565b61107a81610b7a565b82525050565b60006080820190506110956000830187610d78565b6110a26020830186610d78565b6110af604083018561102b565b6110bc6060830184611071565b95945050505050565b7f506c65617365207375626d6974207468652061736b696e67207072696365206960008201527f6e206f7264657220746f20636f6d706c65746520746865207075726368617365602082015250565b6000611121604083610f42565b915061112c826110c5565b604082019050919050565b6000602082019050818103600083015261115081611114565b9050919050565b7f546869732053616c652068617320616c726564792066696e6e69736865640000600082015250565b600061118d601e83610f42565b915061119882611157565b602082019050919050565b600060208201905081810360008301526111bc81611180565b905091905056fea264697066735822122085c07804047f100620420ec27d8fbf06b9549490129052d2cd72ae46ac90607264736f6c634300080b0033",
  "immutableReferences": {},
  "source": "// SPDX-License-Identifier: MIT\r\npragma solidity ^0.8.4;\r\n\r\nimport \"@openzeppelin/contracts/utils/Counters.sol\";\r\nimport \"@openzeppelin/contracts/token/ERC721/ERC721.sol\";\r\nimport \"@openzeppelin/contracts/security/ReentrancyGuard.sol\";\r\n\r\ncontract MarketPlace is ReentrancyGuard {\r\n    using Counters for Counters.Counter;\r\n    Counters.Counter private _itemIds;\r\n    Counters.Counter private _itemsSold;\r\n    \r\n     address public owner;\r\n     \r\n     constructor() {\r\n         owner = msg.sender;\r\n     }\r\n     \r\n     struct MarketItem {\r\n         uint itemId;\r\n         address nftContract;\r\n         uint256 tokenId;\r\n         address payable seller;\r\n         address payable owner;\r\n         uint256 price;\r\n         bool sold;\r\n     }\r\n     \r\n     mapping(uint256 => MarketItem) private idToMarketItem;\r\n     \r\n     event MarketItemCreated (\r\n        uint indexed itemId,\r\n        address indexed nftContract,\r\n        uint256 indexed tokenId,\r\n        address seller,\r\n        address owner,\r\n        uint256 price,\r\n        bool sold\r\n     );\r\n     \r\n     event MarketItemSold (\r\n         uint indexed itemId,\r\n         address owner\r\n         );\r\n     \r\n    \r\n    \r\n    function createMarketItem(\r\n        address nftContract,\r\n        uint256 tokenId,\r\n        uint256 price\r\n        ) public payable nonReentrant {\r\n            require(price > 0, \"Price must be greater than 0\");\r\n            \r\n            _itemIds.increment();\r\n            uint256 itemId = _itemIds.current();\r\n  \r\n            idToMarketItem[itemId] =  MarketItem(\r\n                itemId,\r\n                nftContract,\r\n                tokenId,\r\n                payable(msg.sender),\r\n                payable(address(0)),\r\n                price,\r\n                false\r\n            );\r\n            \r\n            IERC721(nftContract).transferFrom(msg.sender, address(this), tokenId);\r\n                \r\n            emit MarketItemCreated(\r\n                itemId,\r\n                nftContract,\r\n                tokenId,\r\n                msg.sender,\r\n                address(0),\r\n                price,\r\n                false\r\n            );\r\n        }\r\n        \r\n    function createMarketSale(\r\n        address nftContract,\r\n        uint256 itemId\r\n        ) public payable nonReentrant {\r\n            uint price = idToMarketItem[itemId].price;\r\n            uint tokenId = idToMarketItem[itemId].tokenId;\r\n            bool sold = idToMarketItem[itemId].sold;\r\n            require(msg.value == price, \"Please submit the asking price in order to complete the purchase\");\r\n            require(sold != true, \"This Sale has alredy finnished\");\r\n            emit MarketItemSold(\r\n                itemId,\r\n                msg.sender\r\n                );\r\n\r\n            idToMarketItem[itemId].seller.transfer(msg.value);\r\n            IERC721(nftContract).transferFrom(address(this), msg.sender, tokenId);\r\n            idToMarketItem[itemId].owner = payable(msg.sender);\r\n            _itemsSold.increment();\r\n            idToMarketItem[itemId].sold = true;\r\n        }\r\n        \r\n    function fetchMarketItems() public view returns (MarketItem[] memory) {\r\n        uint itemCount = _itemIds.current();\r\n        uint unsoldItemCount = _itemIds.current() - _itemsSold.current();\r\n        uint currentIndex = 0;\r\n\r\n        MarketItem[] memory items = new MarketItem[](unsoldItemCount);\r\n        for (uint i = 0; i < itemCount; i++) {\r\n            if (idToMarketItem[i + 1].owner == address(0)) {\r\n                uint currentId = i + 1;\r\n                MarketItem storage currentItem = idToMarketItem[currentId];\r\n                items[currentIndex] = currentItem;\r\n                currentIndex += 1;\r\n            }\r\n        }\r\n        return items;\r\n    }\r\n      \r\n}\r\n\r\n/// Thanks for inspiration: https://github.com/dabit3/polygon-ethereum-nextjs-marketplace/\r\n",
  "sourcePath": "E:\\Keval Sabhani\\cryptonium_nft\\contracts\\MarketPlace.sol",
  "compiler": {
    "name": "solc",
    "version": "0.8.11+commit.d7f03943.Emscripten.clang"
  },
  "schemaVersion": "3.4.5",
  "updatedAt": "2022-02-25T11:44:14.381Z",
  "networkType": "ethereum",
  "devdoc": {
    "kind": "dev",
    "methods": {},
    "version": 1
  },
  "userdoc": {
    "kind": "user",
    "methods": {},
    "version": 1
  }
}