{
  "contractName": "NFT",
  "abi": [
    {
      "inputs": [
        {
          "internalType": "address",
          "name": "marketplaceAddress",
          "type": "address"
        }
      ],
      "stateMutability": "nonpayable",
      "type": "constructor"
    },
    {
      "anonymous": false,
      "inputs": [
        {
          "indexed": true,
          "internalType": "address",
          "name": "owner",
          "type": "address"
        },
        {
          "indexed": true,
          "internalType": "address",
          "name": "approved",
          "type": "address"
        },
        {
          "indexed": true,
          "internalType": "uint256",
          "name": "tokenId",
          "type": "uint256"
        }
      ],
      "name": "Approval",
      "type": "event"
    },
    {
      "anonymous": false,
      "inputs": [
        {
          "indexed": true,
          "internalType": "address",
          "name": "owner",
          "type": "address"
        },
        {
          "indexed": true,
          "internalType": "address",
          "name": "operator",
          "type": "address"
        },
        {
          "indexed": false,
          "internalType": "bool",
          "name": "approved",
          "type": "bool"
        }
      ],
      "name": "ApprovalForAll",
      "type": "event"
    },
    {
      "anonymous": false,
      "inputs": [
        {
          "indexed": true,
          "internalType": "address",
          "name": "from",
          "type": "address"
        },
        {
          "indexed": true,
          "internalType": "address",
          "name": "to",
          "type": "address"
        },
        {
          "indexed": true,
          "internalType": "uint256",
          "name": "tokenId",
          "type": "uint256"
        }
      ],
      "name": "Transfer",
      "type": "event"
    },
    {
      "inputs": [
        {
          "internalType": "address",
          "name": "to",
          "type": "address"
        },
        {
          "internalType": "uint256",
          "name": "tokenId",
          "type": "uint256"
        }
      ],
      "name": "approve",
      "outputs": [],
      "stateMutability": "nonpayable",
      "type": "function"
    },
    {
      "inputs": [
        {
          "internalType": "address",
          "name": "owner",
          "type": "address"
        }
      ],
      "name": "balanceOf",
      "outputs": [
        {
          "internalType": "uint256",
          "name": "",
          "type": "uint256"
        }
      ],
      "stateMutability": "view",
      "type": "function"
    },
    {
      "inputs": [
        {
          "internalType": "uint256",
          "name": "tokenId",
          "type": "uint256"
        }
      ],
      "name": "getApproved",
      "outputs": [
        {
          "internalType": "address",
          "name": "",
          "type": "address"
        }
      ],
      "stateMutability": "view",
      "type": "function"
    },
    {
      "inputs": [
        {
          "internalType": "address",
          "name": "owner",
          "type": "address"
        },
        {
          "internalType": "address",
          "name": "operator",
          "type": "address"
        }
      ],
      "name": "isApprovedForAll",
      "outputs": [
        {
          "internalType": "bool",
          "name": "",
          "type": "bool"
        }
      ],
      "stateMutability": "view",
      "type": "function"
    },
    {
      "inputs": [],
      "name": "name",
      "outputs": [
        {
          "internalType": "string",
          "name": "",
          "type": "string"
        }
      ],
      "stateMutability": "view",
      "type": "function"
    },
    {
      "inputs": [],
      "name": "owner",
      "outputs": [
        {
          "internalType": "address",
          "name": "",
          "type": "address"
        }
      ],
      "stateMutability": "view",
      "type": "function"
    },
    {
      "inputs": [
        {
          "internalType": "uint256",
          "name": "tokenId",
          "type": "uint256"
        }
      ],
      "name": "ownerOf",
      "outputs": [
        {
          "internalType": "address",
          "name": "",
          "type": "address"
        }
      ],
      "stateMutability": "view",
      "type": "function"
    },
    {
      "inputs": [
        {
          "internalType": "address",
          "name": "from",
          "type": "address"
        },
        {
          "internalType": "address",
          "name": "to",
          "type": "address"
        },
        {
          "internalType": "uint256",
          "name": "tokenId",
          "type": "uint256"
        }
      ],
      "name": "safeTransferFrom",
      "outputs": [],
      "stateMutability": "nonpayable",
      "type": "function"
    },
    {
      "inputs": [
        {
          "internalType": "address",
          "name": "from",
          "type": "address"
        },
        {
          "internalType": "address",
          "name": "to",
          "type": "address"
        },
        {
          "internalType": "uint256",
          "name": "tokenId",
          "type": "uint256"
        },
        {
          "internalType": "bytes",
          "name": "_data",
          "type": "bytes"
        }
      ],
      "name": "safeTransferFrom",
      "outputs": [],
      "stateMutability": "nonpayable",
      "type": "function"
    },
    {
      "inputs": [
        {
          "internalType": "address",
          "name": "operator",
          "type": "address"
        },
        {
          "internalType": "bool",
          "name": "approved",
          "type": "bool"
        }
      ],
      "name": "setApprovalForAll",
      "outputs": [],
      "stateMutability": "nonpayable",
      "type": "function"
    },
    {
      "inputs": [
        {
          "internalType": "bytes4",
          "name": "interfaceId",
          "type": "bytes4"
        }
      ],
      "name": "supportsInterface",
      "outputs": [
        {
          "internalType": "bool",
          "name": "",
          "type": "bool"
        }
      ],
      "stateMutability": "view",
      "type": "function"
    },
    {
      "inputs": [],
      "name": "symbol",
      "outputs": [
        {
          "internalType": "string",
          "name": "",
          "type": "string"
        }
      ],
      "stateMutability": "view",
      "type": "function"
    },
    {
      "inputs": [
        {
          "internalType": "uint256",
          "name": "tokenId",
          "type": "uint256"
        }
      ],
      "name": "tokenURI",
      "outputs": [
        {
          "internalType": "string",
          "name": "",
          "type": "string"
        }
      ],
      "stateMutability": "view",
      "type": "function"
    },
    {
      "inputs": [
        {
          "internalType": "address",
          "name": "from",
          "type": "address"
        },
        {
          "internalType": "address",
          "name": "to",
          "type": "address"
        },
        {
          "internalType": "uint256",
          "name": "tokenId",
          "type": "uint256"
        }
      ],
      "name": "transferFrom",
      "outputs": [],
      "stateMutability": "nonpayable",
      "type": "function"
    },
    {
      "inputs": [
        {
          "internalType": "string",
          "name": "tokenURI",
          "type": "string"
        }
      ],
      "name": "createToken",
      "outputs": [
        {
          "internalType": "uint256",
          "name": "",
          "type": "uint256"
        }
      ],
      "stateMutability": "nonpayable",
      "type": "function"
    }
  ],
  "bytecode": "0x60806040523480156200001157600080fd5b5060405162002fbf38038062002fbf83398181016040528101906200003791906200027a565b6040518060400160405280600b81526020017f47616d6966794d616765730000000000000000000000000000000000000000008152506040518060400160405280600481526020017f4d414745000000000000000000000000000000000000000000000000000000008152508160009080519060200190620000bb92919062000160565b508060019080519060200190620000d492919062000160565b50505033600860006101000a81548173ffffffffffffffffffffffffffffffffffffffff021916908373ffffffffffffffffffffffffffffffffffffffff16021790555080600960006101000a81548173ffffffffffffffffffffffffffffffffffffffff021916908373ffffffffffffffffffffffffffffffffffffffff1602179055505062000311565b8280546200016e90620002db565b90600052602060002090601f016020900481019282620001925760008555620001de565b82601f10620001ad57805160ff1916838001178555620001de565b82800160010185558215620001de579182015b82811115620001dd578251825591602001919060010190620001c0565b5b509050620001ed9190620001f1565b5090565b5b808211156200020c576000816000905550600101620001f2565b5090565b600080fd5b600073ffffffffffffffffffffffffffffffffffffffff82169050919050565b6000620002428262000215565b9050919050565b620002548162000235565b81146200026057600080fd5b50565b600081519050620002748162000249565b92915050565b60006020828403121562000293576200029262000210565b5b6000620002a38482850162000263565b91505092915050565b7f4e487b7100000000000000000000000000000000000000000000000000000000600052602260045260246000fd5b60006002820490506001821680620002f457607f821691505b602082108114156200030b576200030a620002ac565b5b50919050565b612c9e80620003216000396000f3fe608060405234801561001057600080fd5b5060043610610112576000357c0100000000000000000000000000000000000000000000000000000000900480636352211e116100b4578063a22cb46511610083578063a22cb465146102b5578063b88d4fde146102d1578063c87b56dd146102ed578063e985e9c51461031d57610112565b80636352211e1461021957806370a08231146102495780638da5cb5b1461027957806395d89b411461029757610112565b8063095ea7b3116100f0578063095ea7b31461019557806323b872dd146101b157806342842e0e146101cd57806345576f94146101e957610112565b806301ffc9a71461011757806306fdde0314610147578063081812fc14610165575b600080fd5b610131600480360381019061012c9190611a13565b61034d565b60405161013e9190611a5b565b60405180910390f35b61014f61042f565b60405161015c9190611b0f565b60405180910390f35b61017f600480360381019061017a9190611b67565b6104c1565b60405161018c9190611bd5565b60405180910390f35b6101af60048036038101906101aa9190611c1c565b610546565b005b6101cb60048036038101906101c69190611c5c565b61065e565b005b6101e760048036038101906101e29190611c5c565b6106be565b005b61020360048036038101906101fe9190611de4565b6106de565b6040516102109190611e3c565b60405180910390f35b610233600480360381019061022e9190611b67565b610742565b6040516102409190611bd5565b60405180910390f35b610263600480360381019061025e9190611e57565b6107f4565b6040516102709190611e3c565b60405180910390f35b6102816108ac565b60405161028e9190611bd5565b60405180910390f35b61029f6108d2565b6040516102ac9190611b0f565b60405180910390f35b6102cf60048036038101906102ca9190611eb0565b610964565b005b6102eb60048036038101906102e69190611f91565b61097a565b005b61030760048036038101906103029190611b67565b6109dc565b6040516103149190611b0f565b60405180910390f35b61033760048036038101906103329190612014565b610b2e565b6040516103449190611a5b565b60405180910390f35b60007f80ac58cd000000000000000000000000000000000000000000000000000000007bffffffffffffffffffffffffffffffffffffffffffffffffffffffff1916827bffffffffffffffffffffffffffffffffffffffffffffffffffffffff1916148061041857507f5b5e139f000000000000000000000000000000000000000000000000000000007bffffffffffffffffffffffffffffffffffffffffffffffffffffffff1916827bffffffffffffffffffffffffffffffffffffffffffffffffffffffff1916145b80610428575061042782610bc2565b5b9050919050565b60606000805461043e90612083565b80601f016020809104026020016040519081016040528092919081815260200182805461046a90612083565b80156104b75780601f1061048c576101008083540402835291602001916104b7565b820191906000526020600020905b81548152906001019060200180831161049a57829003601f168201915b5050505050905090565b60006104cc82610c2c565b61050b576040517f08c379a000000000000000000000000000000000000000000000000000000000815260040161050290612127565b60405180910390fd5b6004600083815260200190815260200160002060009054906101000a900473ffffffffffffffffffffffffffffffffffffffff169050919050565b600061055182610742565b90508073ffffffffffffffffffffffffffffffffffffffff168373ffffffffffffffffffffffffffffffffffffffff1614156105c2576040517f08c379a00000000000000000000000000000000000000000000000000000000081526004016105b9906121b9565b60405180910390fd5b8073ffffffffffffffffffffffffffffffffffffffff166105e1610c98565b73ffffffffffffffffffffffffffffffffffffffff161480610610575061060f8161060a610c98565b610b2e565b5b61064f576040517f08c379a00000000000000000000000000000000000000000000000000000000081526004016106469061224b565b60405180910390fd5b6106598383610ca0565b505050565b61066f610669610c98565b82610d59565b6106ae576040517f08c379a00000000000000000000000000000000000000000000000000000000081526004016106a5906122dd565b60405180910390fd5b6106b9838383610e37565b505050565b6106d98383836040518060200160405280600081525061097a565b505050565b60006106ea600761109e565b60006106f660076110b4565b905061070233826110c2565b61070c818461129c565b610739600960009054906101000a900473ffffffffffffffffffffffffffffffffffffffff166001610964565b80915050919050565b6000806002600084815260200190815260200160002060009054906101000a900473ffffffffffffffffffffffffffffffffffffffff169050600073ffffffffffffffffffffffffffffffffffffffff168173ffffffffffffffffffffffffffffffffffffffff1614156107eb576040517f08c379a00000000000000000000000000000000000000000000000000000000081526004016107e29061236f565b60405180910390fd5b80915050919050565b60008073ffffffffffffffffffffffffffffffffffffffff168273ffffffffffffffffffffffffffffffffffffffff161415610865576040517f08c379a000000000000000000000000000000000000000000000000000000000815260040161085c90612401565b60405180910390fd5b600360008373ffffffffffffffffffffffffffffffffffffffff1673ffffffffffffffffffffffffffffffffffffffff168152602001908152602001600020549050919050565b600860009054906101000a900473ffffffffffffffffffffffffffffffffffffffff1681565b6060600180546108e190612083565b80601f016020809104026020016040519081016040528092919081815260200182805461090d90612083565b801561095a5780601f1061092f5761010080835404028352916020019161095a565b820191906000526020600020905b81548152906001019060200180831161093d57829003601f168201915b5050505050905090565b61097661096f610c98565b8383611310565b5050565b61098b610985610c98565b83610d59565b6109ca576040517f08c379a00000000000000000000000000000000000000000000000000000000081526004016109c1906122dd565b60405180910390fd5b6109d68484848461147d565b50505050565b60606109e782610c2c565b610a26576040517f08c379a0000000000000000000000000000000000000000000000000000000008152600401610a1d90612493565b60405180910390fd5b6000600660008481526020019081526020016000208054610a4690612083565b80601f0160208091040260200160405190810160405280929190818152602001828054610a7290612083565b8015610abf5780601f10610a9457610100808354040283529160200191610abf565b820191906000526020600020905b815481529060010190602001808311610aa257829003601f168201915b505050505090506000610ad06114d9565b9050600081511415610ae6578192505050610b29565b600082511115610b1b578082604051602001610b039291906124ef565b60405160208183030381529060405292505050610b29565b610b24846114f0565b925050505b919050565b6000600560008473ffffffffffffffffffffffffffffffffffffffff1673ffffffffffffffffffffffffffffffffffffffff16815260200190815260200160002060008373ffffffffffffffffffffffffffffffffffffffff1673ffffffffffffffffffffffffffffffffffffffff16815260200190815260200160002060009054906101000a900460ff16905092915050565b60007f01ffc9a7000000000000000000000000000000000000000000000000000000007bffffffffffffffffffffffffffffffffffffffffffffffffffffffff1916827bffffffffffffffffffffffffffffffffffffffffffffffffffffffff1916149050919050565b60008073ffffffffffffffffffffffffffffffffffffffff166002600084815260200190815260200160002060009054906101000a900473ffffffffffffffffffffffffffffffffffffffff1673ffffffffffffffffffffffffffffffffffffffff1614159050919050565b600033905090565b816004600083815260200190815260200160002060006101000a81548173ffffffffffffffffffffffffffffffffffffffff021916908373ffffffffffffffffffffffffffffffffffffffff160217905550808273ffffffffffffffffffffffffffffffffffffffff16610d1383610742565b73ffffffffffffffffffffffffffffffffffffffff167f8c5be1e5ebec7d5bd14f71427d1e84f3dd0314c0f7b2291e5b200ac8c7c3b92560405160405180910390a45050565b6000610d6482610c2c565b610da3576040517f08c379a0000000000000000000000000000000000000000000000000000000008152600401610d9a90612585565b60405180910390fd5b6000610dae83610742565b90508073ffffffffffffffffffffffffffffffffffffffff168473ffffffffffffffffffffffffffffffffffffffff161480610e1d57508373ffffffffffffffffffffffffffffffffffffffff16610e05846104c1565b73ffffffffffffffffffffffffffffffffffffffff16145b80610e2e5750610e2d8185610b2e565b5b91505092915050565b8273ffffffffffffffffffffffffffffffffffffffff16610e5782610742565b73ffffffffffffffffffffffffffffffffffffffff1614610ead576040517f08c379a0000000000000000000000000000000000000000000000000000000008152600401610ea490612617565b60405180910390fd5b600073ffffffffffffffffffffffffffffffffffffffff168273ffffffffffffffffffffffffffffffffffffffff161415610f1d576040517f08c379a0000000000000000000000000000000000000000000000000000000008152600401610f14906126a9565b60405180910390fd5b610f28838383611597565b610f33600082610ca0565b6001600360008573ffffffffffffffffffffffffffffffffffffffff1673ffffffffffffffffffffffffffffffffffffffff1681526020019081526020016000206000828254610f8391906126f8565b925050819055506001600360008473ffffffffffffffffffffffffffffffffffffffff1673ffffffffffffffffffffffffffffffffffffffff1681526020019081526020016000206000828254610fda919061272c565b92505081905550816002600083815260200190815260200160002060006101000a81548173ffffffffffffffffffffffffffffffffffffffff021916908373ffffffffffffffffffffffffffffffffffffffff160217905550808273ffffffffffffffffffffffffffffffffffffffff168473ffffffffffffffffffffffffffffffffffffffff167fddf252ad1be2c89b69c2b068fc378daa952ba7f163c4a11628f55a4df523b3ef60405160405180910390a461109983838361159c565b505050565b6001816000016000828254019250508190555050565b600081600001549050919050565b600073ffffffffffffffffffffffffffffffffffffffff168273ffffffffffffffffffffffffffffffffffffffff161415611132576040517f08c379a0000000000000000000000000000000000000000000000000000000008152600401611129906127ce565b60405180910390fd5b61113b81610c2c565b1561117b576040517f08c379a00000000000000000000000000000000000000000000000000000000081526004016111729061283a565b60405180910390fd5b61118760008383611597565b6001600360008473ffffffffffffffffffffffffffffffffffffffff1673ffffffffffffffffffffffffffffffffffffffff16815260200190815260200160002060008282546111d7919061272c565b92505081905550816002600083815260200190815260200160002060006101000a81548173ffffffffffffffffffffffffffffffffffffffff021916908373ffffffffffffffffffffffffffffffffffffffff160217905550808273ffffffffffffffffffffffffffffffffffffffff16600073ffffffffffffffffffffffffffffffffffffffff167fddf252ad1be2c89b69c2b068fc378daa952ba7f163c4a11628f55a4df523b3ef60405160405180910390a46112986000838361159c565b5050565b6112a582610c2c565b6112e4576040517f08c379a00000000000000000000000000000000000000000000000000000000081526004016112db906128cc565b60405180910390fd5b8060066000848152602001908152602001600020908051906020019061130b929190611904565b505050565b8173ffffffffffffffffffffffffffffffffffffffff168373ffffffffffffffffffffffffffffffffffffffff16141561137f576040517f08c379a000000000000000000000000000000000000000000000000000000000815260040161137690612938565b60405180910390fd5b80600560008573ffffffffffffffffffffffffffffffffffffffff1673ffffffffffffffffffffffffffffffffffffffff16815260200190815260200160002060008473ffffffffffffffffffffffffffffffffffffffff1673ffffffffffffffffffffffffffffffffffffffff16815260200190815260200160002060006101000a81548160ff0219169083151502179055508173ffffffffffffffffffffffffffffffffffffffff168373ffffffffffffffffffffffffffffffffffffffff167f17307eab39ab6107e8899845ad3d59bd9653f200f220920489ca2b5937696c31836040516114709190611a5b565b60405180910390a3505050565b611488848484610e37565b611494848484846115a1565b6114d3576040517f08c379a00000000000000000000000000000000000000000000000000000000081526004016114ca906129ca565b60405180910390fd5b50505050565b606060405180602001604052806000815250905090565b60606114fb82610c2c565b61153a576040517f08c379a000000000000000000000000000000000000000000000000000000000815260040161153190612a5c565b60405180910390fd5b60006115446114d9565b90506000815111611564576040518060200160405280600081525061158f565b8061156e84611761565b60405160200161157f9291906124ef565b6040516020818303038152906040525b915050919050565b505050565b505050565b60006115c28473ffffffffffffffffffffffffffffffffffffffff166118e1565b15611754578373ffffffffffffffffffffffffffffffffffffffff1663150b7a026115eb610c98565b8786866040518563ffffffff167c01000000000000000000000000000000000000000000000000000000000281526004016116299493929190612ad1565b6020604051808303816000875af192505050801561166557506040513d601f19601f820116820180604052508101906116629190612b32565b60015b6116e8573d8060008114611695576040519150601f19603f3d011682016040523d82523d6000602084013e61169a565b606091505b506000815114156116e0576040517f08c379a00000000000000000000000000000000000000000000000000000000081526004016116d7906129ca565b60405180910390fd5b805181602001fd5b63150b7a027c0100000000000000000000000000000000000000000000000000000000027bffffffffffffffffffffffffffffffffffffffffffffffffffffffff1916817bffffffffffffffffffffffffffffffffffffffffffffffffffffffff191614915050611759565b600190505b949350505050565b606060008214156117a9576040518060400160405280600181526020017f300000000000000000000000000000000000000000000000000000000000000081525090506118dc565b600082905060005b600082146117db5780806117c490612b5f565b915050600a826117d49190612bd7565b91506117b1565b60008167ffffffffffffffff8111156117f7576117f6611cb9565b5b6040519080825280601f01601f1916602001820160405280156118295781602001600182028036833780820191505090505b5090505b600085146118d55760018261184291906126f8565b9150600a856118519190612c08565b603061185d919061272c565b7f01000000000000000000000000000000000000000000000000000000000000000281838151811061189257611891612c39565b5b60200101907effffffffffffffffffffffffffffffffffffffffffffffffffffffffffffff1916908160001a905350600a856118ce9190612bd7565b945061182d565b8093505050505b919050565b6000808273ffffffffffffffffffffffffffffffffffffffff163b119050919050565b82805461191090612083565b90600052602060002090601f0160209004810192826119325760008555611979565b82601f1061194b57805160ff1916838001178555611979565b82800160010185558215611979579182015b8281111561197857825182559160200191906001019061195d565b5b509050611986919061198a565b5090565b5b808211156119a357600081600090555060010161198b565b5090565b6000604051905090565b600080fd5b600080fd5b60007fffffffff0000000000000000000000000000000000000000000000000000000082169050919050565b6119f0816119bb565b81146119fb57600080fd5b50565b600081359050611a0d816119e7565b92915050565b600060208284031215611a2957611a286119b1565b5b6000611a37848285016119fe565b91505092915050565b60008115159050919050565b611a5581611a40565b82525050565b6000602082019050611a706000830184611a4c565b92915050565b600081519050919050565b600082825260208201905092915050565b60005b83811015611ab0578082015181840152602081019050611a95565b83811115611abf576000848401525b50505050565b6000601f19601f8301169050919050565b6000611ae182611a76565b611aeb8185611a81565b9350611afb818560208601611a92565b611b0481611ac5565b840191505092915050565b60006020820190508181036000830152611b298184611ad6565b905092915050565b6000819050919050565b611b4481611b31565b8114611b4f57600080fd5b50565b600081359050611b6181611b3b565b92915050565b600060208284031215611b7d57611b7c6119b1565b5b6000611b8b84828501611b52565b91505092915050565b600073ffffffffffffffffffffffffffffffffffffffff82169050919050565b6000611bbf82611b94565b9050919050565b611bcf81611bb4565b82525050565b6000602082019050611bea6000830184611bc6565b92915050565b611bf981611bb4565b8114611c0457600080fd5b50565b600081359050611c1681611bf0565b92915050565b60008060408385031215611c3357611c326119b1565b5b6000611c4185828601611c07565b9250506020611c5285828601611b52565b9150509250929050565b600080600060608486031215611c7557611c746119b1565b5b6000611c8386828701611c07565b9350506020611c9486828701611c07565b9250506040611ca586828701611b52565b9150509250925092565b600080fd5b600080fd5b7f4e487b7100000000000000000000000000000000000000000000000000000000600052604160045260246000fd5b611cf182611ac5565b810181811067ffffffffffffffff82111715611d1057611d0f611cb9565b5b80604052505050565b6000611d236119a7565b9050611d2f8282611ce8565b919050565b600067ffffffffffffffff821115611d4f57611d4e611cb9565b5b611d5882611ac5565b9050602081019050919050565b82818337600083830152505050565b6000611d87611d8284611d34565b611d19565b905082815260208101848484011115611da357611da2611cb4565b5b611dae848285611d65565b509392505050565b600082601f830112611dcb57611dca611caf565b5b8135611ddb848260208601611d74565b91505092915050565b600060208284031215611dfa57611df96119b1565b5b600082013567ffffffffffffffff811115611e1857611e176119b6565b5b611e2484828501611db6565b91505092915050565b611e3681611b31565b82525050565b6000602082019050611e516000830184611e2d565b92915050565b600060208284031215611e6d57611e6c6119b1565b5b6000611e7b84828501611c07565b91505092915050565b611e8d81611a40565b8114611e9857600080fd5b50565b600081359050611eaa81611e84565b92915050565b60008060408385031215611ec757611ec66119b1565b5b6000611ed585828601611c07565b9250506020611ee685828601611e9b565b9150509250929050565b600067ffffffffffffffff821115611f0b57611f0a611cb9565b5b611f1482611ac5565b9050602081019050919050565b6000611f34611f2f84611ef0565b611d19565b905082815260208101848484011115611f5057611f4f611cb4565b5b611f5b848285611d65565b509392505050565b600082601f830112611f7857611f77611caf565b5b8135611f88848260208601611f21565b91505092915050565b60008060008060808587031215611fab57611faa6119b1565b5b6000611fb987828801611c07565b9450506020611fca87828801611c07565b9350506040611fdb87828801611b52565b925050606085013567ffffffffffffffff811115611ffc57611ffb6119b6565b5b61200887828801611f63565b91505092959194509250565b6000806040838503121561202b5761202a6119b1565b5b600061203985828601611c07565b925050602061204a85828601611c07565b9150509250929050565b7f4e487b7100000000000000000000000000000000000000000000000000000000600052602260045260246000fd5b6000600282049050600182168061209b57607f821691505b602082108114156120af576120ae612054565b5b50919050565b7f4552433732313a20617070726f76656420717565727920666f72206e6f6e657860008201527f697374656e7420746f6b656e0000000000000000000000000000000000000000602082015250565b6000612111602c83611a81565b915061211c826120b5565b604082019050919050565b6000602082019050818103600083015261214081612104565b9050919050565b7f4552433732313a20617070726f76616c20746f2063757272656e74206f776e6560008201527f7200000000000000000000000000000000000000000000000000000000000000602082015250565b60006121a3602183611a81565b91506121ae82612147565b604082019050919050565b600060208201905081810360008301526121d281612196565b9050919050565b7f4552433732313a20617070726f76652063616c6c6572206973206e6f74206f7760008201527f6e6572206e6f7220617070726f76656420666f7220616c6c0000000000000000602082015250565b6000612235603883611a81565b9150612240826121d9565b604082019050919050565b6000602082019050818103600083015261226481612228565b9050919050565b7f4552433732313a207472616e736665722063616c6c6572206973206e6f74206f60008201527f776e6572206e6f7220617070726f766564000000000000000000000000000000602082015250565b60006122c7603183611a81565b91506122d28261226b565b604082019050919050565b600060208201905081810360008301526122f6816122ba565b9050919050565b7f4552433732313a206f776e657220717565727920666f72206e6f6e657869737460008201527f656e7420746f6b656e0000000000000000000000000000000000000000000000602082015250565b6000612359602983611a81565b9150612364826122fd565b604082019050919050565b600060208201905081810360008301526123888161234c565b9050919050565b7f4552433732313a2062616c616e636520717565727920666f7220746865207a6560008201527f726f206164647265737300000000000000000000000000000000000000000000602082015250565b60006123eb602a83611a81565b91506123f68261238f565b604082019050919050565b6000602082019050818103600083015261241a816123de565b9050919050565b7f45524337323155524953746f726167653a2055524920717565727920666f722060008201527f6e6f6e6578697374656e7420746f6b656e000000000000000000000000000000602082015250565b600061247d603183611a81565b915061248882612421565b604082019050919050565b600060208201905081810360008301526124ac81612470565b9050919050565b600081905092915050565b60006124c982611a76565b6124d381856124b3565b93506124e3818560208601611a92565b80840191505092915050565b60006124fb82856124be565b915061250782846124be565b91508190509392505050565b7f4552433732313a206f70657261746f7220717565727920666f72206e6f6e657860008201527f697374656e7420746f6b656e0000000000000000000000000000000000000000602082015250565b600061256f602c83611a81565b915061257a82612513565b604082019050919050565b6000602082019050818103600083015261259e81612562565b9050919050565b7f4552433732313a207472616e736665722066726f6d20696e636f72726563742060008201527f6f776e6572000000000000000000000000000000000000000000000000000000602082015250565b6000612601602583611a81565b915061260c826125a5565b604082019050919050565b60006020820190508181036000830152612630816125f4565b9050919050565b7f4552433732313a207472616e7366657220746f20746865207a65726f2061646460008201527f7265737300000000000000000000000000000000000000000000000000000000602082015250565b6000612693602483611a81565b915061269e82612637565b604082019050919050565b600060208201905081810360008301526126c281612686565b9050919050565b7f4e487b7100000000000000000000000000000000000000000000000000000000600052601160045260246000fd5b600061270382611b31565b915061270e83611b31565b925082821015612721576127206126c9565b5b828203905092915050565b600061273782611b31565b915061274283611b31565b9250827fffffffffffffffffffffffffffffffffffffffffffffffffffffffffffffffff03821115612777576127766126c9565b5b828201905092915050565b7f4552433732313a206d696e7420746f20746865207a65726f2061646472657373600082015250565b60006127b8602083611a81565b91506127c382612782565b602082019050919050565b600060208201905081810360008301526127e7816127ab565b9050919050565b7f4552433732313a20746f6b656e20616c7265616479206d696e74656400000000600082015250565b6000612824601c83611a81565b915061282f826127ee565b602082019050919050565b6000602082019050818103600083015261285381612817565b9050919050565b7f45524337323155524953746f726167653a2055524920736574206f66206e6f6e60008201527f6578697374656e7420746f6b656e000000000000000000000000000000000000602082015250565b60006128b6602e83611a81565b91506128c18261285a565b604082019050919050565b600060208201905081810360008301526128e5816128a9565b9050919050565b7f4552433732313a20617070726f766520746f2063616c6c657200000000000000600082015250565b6000612922601983611a81565b915061292d826128ec565b602082019050919050565b6000602082019050818103600083015261295181612915565b9050919050565b7f4552433732313a207472616e7366657220746f206e6f6e20455243373231526560008201527f63656976657220696d706c656d656e7465720000000000000000000000000000602082015250565b60006129b4603283611a81565b91506129bf82612958565b604082019050919050565b600060208201905081810360008301526129e3816129a7565b9050919050565b7f4552433732314d657461646174613a2055524920717565727920666f72206e6f60008201527f6e6578697374656e7420746f6b656e0000000000000000000000000000000000602082015250565b6000612a46602f83611a81565b9150612a51826129ea565b604082019050919050565b60006020820190508181036000830152612a7581612a39565b9050919050565b600081519050919050565b600082825260208201905092915050565b6000612aa382612a7c565b612aad8185612a87565b9350612abd818560208601611a92565b612ac681611ac5565b840191505092915050565b6000608082019050612ae66000830187611bc6565b612af36020830186611bc6565b612b006040830185611e2d565b8181036060830152612b128184612a98565b905095945050505050565b600081519050612b2c816119e7565b92915050565b600060208284031215612b4857612b476119b1565b5b6000612b5684828501612b1d565b91505092915050565b6000612b6a82611b31565b91507fffffffffffffffffffffffffffffffffffffffffffffffffffffffffffffffff821415612b9d57612b9c6126c9565b5b600182019050919050565b7f4e487b7100000000000000000000000000000000000000000000000000000000600052601260045260246000fd5b6000612be282611b31565b9150612bed83611b31565b925082612bfd57612bfc612ba8565b5b828204905092915050565b6000612c1382611b31565b9150612c1e83611b31565b925082612c2e57612c2d612ba8565b5b828206905092915050565b7f4e487b7100000000000000000000000000000000000000000000000000000000600052603260045260246000fdfea26469706673582212204960968a0d481040596321a73a8836fa47df63d0896f2605e960ff0772b3d19364736f6c634300080b0033",
  "immutableReferences": {},
  "source": "// SPDX-License-Identifier: MIT\r\npragma solidity ^0.8.3;\r\n\r\nimport \"@openzeppelin/contracts/utils/Counters.sol\";\r\nimport \"@openzeppelin/contracts/token/ERC721/extensions/ERC721URIStorage.sol\";\r\nimport \"@openzeppelin/contracts/token/ERC721/ERC721.sol\";\r\n\r\n\r\ncontract NFT is ERC721URIStorage {\r\n    using Counters for Counters.Counter;\r\n    Counters.Counter private _tokenIds;\r\n    address public owner;\r\n    address contractAddress;\r\n\r\n    constructor(address marketplaceAddress) ERC721(\"GamifyMages\", \"MAGE\") {\r\n        owner = msg.sender;\r\n        contractAddress = marketplaceAddress;\r\n    }\r\n\r\n    function createToken(string memory tokenURI) public returns (uint) {\r\n        _tokenIds.increment();\r\n        uint256 newItemId = _tokenIds.current();\r\n        \r\n        _mint(msg.sender, newItemId);\r\n        _setTokenURI(newItemId, tokenURI);\r\n        setApprovalForAll(contractAddress, true);\r\n        return newItemId;\r\n    }\r\n}\r\n",
  "sourcePath": "E:\\Keval Sabhani\\cryptonium_nft\\contracts\\NFT.sol",
  "compiler": {
    "name": "solc",
    "version": "0.8.11+commit.d7f03943.Emscripten.clang"
  },
  "schemaVersion": "3.4.5",
  "updatedAt": "2022-02-25T11:44:01.530Z",
  "devdoc": {
    "kind": "dev",
    "methods": {
      "approve(address,uint256)": {
        "details": "See {IERC721-approve}."
      },
      "balanceOf(address)": {
        "details": "See {IERC721-balanceOf}."
      },
      "getApproved(uint256)": {
        "details": "See {IERC721-getApproved}."
      },
      "isApprovedForAll(address,address)": {
        "details": "See {IERC721-isApprovedForAll}."
      },
      "name()": {
        "details": "See {IERC721Metadata-name}."
      },
      "ownerOf(uint256)": {
        "details": "See {IERC721-ownerOf}."
      },
      "safeTransferFrom(address,address,uint256)": {
        "details": "See {IERC721-safeTransferFrom}."
      },
      "safeTransferFrom(address,address,uint256,bytes)": {
        "details": "See {IERC721-safeTransferFrom}."
      },
      "setApprovalForAll(address,bool)": {
        "details": "See {IERC721-setApprovalForAll}."
      },
      "supportsInterface(bytes4)": {
        "details": "See {IERC165-supportsInterface}."
      },
      "symbol()": {
        "details": "See {IERC721Metadata-symbol}."
      },
      "tokenURI(uint256)": {
        "details": "See {IERC721Metadata-tokenURI}."
      },
      "transferFrom(address,address,uint256)": {
        "details": "See {IERC721-transferFrom}."
      }
    },
    "version": 1
  },
  "userdoc": {
    "kind": "user",
    "methods": {},
    "version": 1
  }
}